{
  "transactions": [
    {
      "hash": "0xf48bfa4a4bbbadce4b7412ef1712fdd8aed7d718b37da61334eabde0a27d9e43",
      "transactionType": "CREATE",
      "contractName": "Tkn",
      "contractAddress": "0x47aac60014410ce6de3a315dfe2ee2a7698c897f",
      "function": null,
      "arguments": [
        "Pepe",
        "PEPE",
        "6",
        "1000000"
      ],
      "transaction": {
        "from": "0x14ffb23ad08f4ba3712ac6167dc69d6c54a09e6f",
        "gas": "0x11152675f",
        "value": "0x0",
        "input": "0x60c06040523461041357610e2e8038038061001981610418565b92833981016080828203126104135781516001600160401b038111610413578161004491840161043d565b602083015190916001600160401b0382116104135761006491840161043d565b91604081015160ff811691828203610413576060015160a0819052835190936001600160401b0382116103135760005490600182811c92168015610409575b60208310146102f35781601f84931161039a575b50602090601f831160011461033457600092610329575b50508160011b916000199060031b1c1916176000555b83516001600160401b03811161031357600154600181811c91168015610309575b60208210146102f357601f811161028e575b50602094601f82116001146102275794819293949560009261021c575b50508160011b916000199060031b1c1916176001555b608052604d811161020657600a0a90818102918183041490151715610206576805345cdf77eb68f44c548181019081106101f8576805345cdf77eb68f44c556387a211a2600c52336000526020600c20818154019055602052600c5160601c60007fddf252ad1be2c89b69c2b068fc378daa952ba7f163c4a11628f55a4df523b3ef602080a360405161098590816104a982396080518181816105e10152610716015260a051816106f30152f35b63e5cfe9576000526004601cfd5b634e487b7160e01b600052601160045260246000fd5b015190503880610134565b601f198216956001600052806000209160005b8881106102765750836001959697981061025d575b505050811b0160015561014a565b015160001960f88460031b161c1916905538808061024f565b9192602060018192868501518155019401920161023a565b60016000527fb10e2d527612073b26eecdfd717e6a320cf44b4afac2b0732d9fcbe2b7fa0cf6601f830160051c810191602084106102e9575b601f0160051c01905b8181106102dd5750610117565b600081556001016102d0565b90915081906102c7565b634e487b7160e01b600052602260045260246000fd5b90607f1690610105565b634e487b7160e01b600052604160045260246000fd5b0151905038806100ce565b60008080528281209350601f198516905b8181106103825750908460019594939210610369575b505050811b016000556100e4565b015160001960f88460031b161c1916905538808061035b565b92936020600181928786015181550195019301610345565b600080529091507f290decd9548b62a8d60345a988386fc84ba6bc95484008f6362f93160ef3e563601f840160051c810191602085106103ff575b90601f859493920160051c01905b8181106103f057506100b7565b600081558493506001016103e3565b90915081906103d5565b91607f16916100a3565b600080fd5b6040519190601f01601f191682016001600160401b0381118382101761031357604052565b81601f82011215610413578051906001600160401b0382116103135761046c601f8301601f1916602001610418565b92828452602083830101116104135760005b82811061049357505060206000918301015290565b8060208092840101518282870101520161047e56fe6080604052600436101561001257600080fd5b60003560e01c806306fdde03146107e1578063095ea7b31461077357806318160ddd146106e057806323b872dd14610605578063313ce567146105c75780633644e5151461053e57806340c10f19146104ab57806370a08231146104785780637ecebe001461044557806395d89b4114610322578063a9059cbb14610290578063d505accf146100ef5763dd62ed3e146100ab57600080fd5b346100ea5760403660031901126100ea576100c461084e565b6100cc610864565b602052637f5e9f20600c5260005260206034600c2054604051908152f35b600080fd5b346100ea5760e03660031901126100ea5761010861084e565b610110610864565b6084359160643560443560ff851685036100ea5761012c61087a565b6020815191012090824211610282576040519360018060a01b03169460018060a01b03169565383775081901600e528560005260c06020600c20958654957f8b73c3c69bb8fe3d512ecc4cf759cc79239f7b179b0ffacaa9a75d522b39400f8252602082019586528660408301967fc89efdaa54c0f20c7adf612882df0950f5a951637e0307cdcb4c672f298b8bc688528b6060850198468a528c608087019330855260a08820602e527f6e71edae12b1b97f4d1f60370fef10105fa2faae0126114a169c64845d6126c9885252528688525260a082015220604e526042602c2060005260ff1660205260a43560405260c4356060526020806080600060015afa93853d5103610274577f8c5be1e5ebec7d5bd14f71427d1e84f3dd0314c0f7b2291e5b200ac8c7c3b92594602094019055856303faf4f960a51b176040526034602c2055a3005b63ddafbaef6000526004601cfd5b631a15a3cc6000526004601cfd5b346100ea5760403660031901126100ea576102a961084e565b602435906387a211a2600c52336000526020600c2080548084116103145783900390556000526020600c20818154019055602052600c5160601c337fddf252ad1be2c89b69c2b068fc378daa952ba7f163c4a11628f55a4df523b3ef602080a3602060405160018152f35b63f4d678b86000526004601cfd5b346100ea5760003660031901126100ea5760405160006001548060011c9060018116801561043b575b6020831081146104275782855290811561040b57506001146103b4575b50819003601f01601f191681019067ffffffffffffffff82118183101761039e576040829052819061039a9082610805565b0390f35b634e487b7160e01b600052604160045260246000fd5b600160009081529091507fb10e2d527612073b26eecdfd717e6a320cf44b4afac2b0732d9fcbe2b7fa0cf65b8282106103f557506020915082010182610368565b60018160209254838588010152019101906103e0565b90506020925060ff191682840152151560051b82010182610368565b634e487b7160e01b84526022600452602484fd5b91607f169161034b565b346100ea5760203660031901126100ea5761045e61084e565b6338377508600c52600052602080600c2054604051908152f35b346100ea5760203660031901126100ea5761049161084e565b6387a211a2600c52600052602080600c2054604051908152f35b346100ea5760403660031901126100ea576104c461084e565b602435906805345cdf77eb68f44c54828101908110610530576805345cdf77eb68f44c556387a211a2600c526000526020600c20818154019055602052600c5160601c60007fddf252ad1be2c89b69c2b068fc378daa952ba7f163c4a11628f55a4df523b3ef602080a3005b63e5cfe9576000526004601cfd5b346100ea5760003660031901126100ea57602060a061055b61087a565b828151910120604051907f8b73c3c69bb8fe3d512ecc4cf759cc79239f7b179b0ffacaa9a75d522b39400f8252838201527fc89efdaa54c0f20c7adf612882df0950f5a951637e0307cdcb4c672f298b8bc6604082015246606082015230608082015220604051908152f35b346100ea5760003660031901126100ea57602060405160ff7f0000000000000000000000000000000000000000000000000000000000000000168152f35b346100ea5760603660031901126100ea5761061e61084e565b610626610864565b604435908260601b33602052637f5e9f208117600c526034600c209081549182196106bb575b506387a211a2915017600c526020600c2080548084116103145783900390556000526020600c20818154019055602052600c5160601c9060018060a01b03167fddf252ad1be2c89b69c2b068fc378daa952ba7f163c4a11628f55a4df523b3ef602080a3602060405160018152f35b8285116106d257846387a211a2930390558561064c565b6313be252b6000526004601cfd5b346100ea5760003660031901126100ea577f000000000000000000000000000000000000000000000000000000000000000060ff7f000000000000000000000000000000000000000000000000000000000000000016604d811161075d57600a0a9081810291818304149015171561075d57602090604051908152f35b634e487b7160e01b600052601160045260246000fd5b346100ea5760403660031901126100ea5761078c61084e565b60243590602052637f5e9f20600c5233600052806034600c2055600052602c5160601c337f8c5be1e5ebec7d5bd14f71427d1e84f3dd0314c0f7b2291e5b200ac8c7c3b92560206000a3602060405160018152f35b346100ea5760003660031901126100ea5761039a6107fd61087a565b604051918291825b91909160208152825180602083015260005b818110610838575060409293506000838284010152601f8019910116010190565b8060208092870101516040828601015201610817565b600435906001600160a01b03821682036100ea57565b602435906001600160a01b03821682036100ea57565b60405190600080548060011c90600181168015610945575b6020831081146104275782865290811561092957506001146108d4575b50829003601f01601f1916820167ffffffffffffffff81118382101761039e57604052565b60008080529091507f290decd9548b62a8d60345a988386fc84ba6bc95484008f6362f93160ef3e5635b828210610913575060209150830101386108af565b60018160209254838589010152019101906108fe565b90506020925060ff191682850152151560051b830101386108af565b91607f169161089256fea2646970667358221220aa410c6046cba1dc1f2f86ed14152b72ff7e6949c13ff4c10bca4938227ef69f64736f6c634300081c0033000000000000000000000000000000000000000000000000000000000000008000000000000000000000000000000000000000000000000000000000000000c0000000000000000000000000000000000000000000000000000000000000000600000000000000000000000000000000000000000000000000000000000f42400000000000000000000000000000000000000000000000000000000000000004506570650000000000000000000000000000000000000000000000000000000000000000000000000000000000000000000000000000000000000000000000045045504500000000000000000000000000000000000000000000000000000000",
        "nonce": "0x0",
        "chainId": "0x138b"
      },
      "additionalContracts": [],
      "isFixedGasLimit": false
    },
    {
      "hash": "0xb2ff70aeb7f35e022518e68064fd7c155bed18d239bc5aab84449be032cd0f9f",
      "transactionType": "CREATE",
      "contractName": "Tkn",
      "contractAddress": "0x85cb077de6640eb393dbc0f275f08b2bf2008cb3",
      "function": null,
      "arguments": [
        "Doge",
        "DOGE",
        "6",
        "1000000"
      ],
      "transaction": {
        "from": "0x14ffb23ad08f4ba3712ac6167dc69d6c54a09e6f",
        "gas": "0x11152675f",
        "value": "0x0",
        "input": "0x60c06040523461041357610e2e8038038061001981610418565b92833981016080828203126104135781516001600160401b038111610413578161004491840161043d565b602083015190916001600160401b0382116104135761006491840161043d565b91604081015160ff811691828203610413576060015160a0819052835190936001600160401b0382116103135760005490600182811c92168015610409575b60208310146102f35781601f84931161039a575b50602090601f831160011461033457600092610329575b50508160011b916000199060031b1c1916176000555b83516001600160401b03811161031357600154600181811c91168015610309575b60208210146102f357601f811161028e575b50602094601f82116001146102275794819293949560009261021c575b50508160011b916000199060031b1c1916176001555b608052604d811161020657600a0a90818102918183041490151715610206576805345cdf77eb68f44c548181019081106101f8576805345cdf77eb68f44c556387a211a2600c52336000526020600c20818154019055602052600c5160601c60007fddf252ad1be2c89b69c2b068fc378daa952ba7f163c4a11628f55a4df523b3ef602080a360405161098590816104a982396080518181816105e10152610716015260a051816106f30152f35b63e5cfe9576000526004601cfd5b634e487b7160e01b600052601160045260246000fd5b015190503880610134565b601f198216956001600052806000209160005b8881106102765750836001959697981061025d575b505050811b0160015561014a565b015160001960f88460031b161c1916905538808061024f565b9192602060018192868501518155019401920161023a565b60016000527fb10e2d527612073b26eecdfd717e6a320cf44b4afac2b0732d9fcbe2b7fa0cf6601f830160051c810191602084106102e9575b601f0160051c01905b8181106102dd5750610117565b600081556001016102d0565b90915081906102c7565b634e487b7160e01b600052602260045260246000fd5b90607f1690610105565b634e487b7160e01b600052604160045260246000fd5b0151905038806100ce565b60008080528281209350601f198516905b8181106103825750908460019594939210610369575b505050811b016000556100e4565b015160001960f88460031b161c1916905538808061035b565b92936020600181928786015181550195019301610345565b600080529091507f290decd9548b62a8d60345a988386fc84ba6bc95484008f6362f93160ef3e563601f840160051c810191602085106103ff575b90601f859493920160051c01905b8181106103f057506100b7565b600081558493506001016103e3565b90915081906103d5565b91607f16916100a3565b600080fd5b6040519190601f01601f191682016001600160401b0381118382101761031357604052565b81601f82011215610413578051906001600160401b0382116103135761046c601f8301601f1916602001610418565b92828452602083830101116104135760005b82811061049357505060206000918301015290565b8060208092840101518282870101520161047e56fe6080604052600436101561001257600080fd5b60003560e01c806306fdde03146107e1578063095ea7b31461077357806318160ddd146106e057806323b872dd14610605578063313ce567146105c75780633644e5151461053e57806340c10f19146104ab57806370a08231146104785780637ecebe001461044557806395d89b4114610322578063a9059cbb14610290578063d505accf146100ef5763dd62ed3e146100ab57600080fd5b346100ea5760403660031901126100ea576100c461084e565b6100cc610864565b602052637f5e9f20600c5260005260206034600c2054604051908152f35b600080fd5b346100ea5760e03660031901126100ea5761010861084e565b610110610864565b6084359160643560443560ff851685036100ea5761012c61087a565b6020815191012090824211610282576040519360018060a01b03169460018060a01b03169565383775081901600e528560005260c06020600c20958654957f8b73c3c69bb8fe3d512ecc4cf759cc79239f7b179b0ffacaa9a75d522b39400f8252602082019586528660408301967fc89efdaa54c0f20c7adf612882df0950f5a951637e0307cdcb4c672f298b8bc688528b6060850198468a528c608087019330855260a08820602e527f6e71edae12b1b97f4d1f60370fef10105fa2faae0126114a169c64845d6126c9885252528688525260a082015220604e526042602c2060005260ff1660205260a43560405260c4356060526020806080600060015afa93853d5103610274577f8c5be1e5ebec7d5bd14f71427d1e84f3dd0314c0f7b2291e5b200ac8c7c3b92594602094019055856303faf4f960a51b176040526034602c2055a3005b63ddafbaef6000526004601cfd5b631a15a3cc6000526004601cfd5b346100ea5760403660031901126100ea576102a961084e565b602435906387a211a2600c52336000526020600c2080548084116103145783900390556000526020600c20818154019055602052600c5160601c337fddf252ad1be2c89b69c2b068fc378daa952ba7f163c4a11628f55a4df523b3ef602080a3602060405160018152f35b63f4d678b86000526004601cfd5b346100ea5760003660031901126100ea5760405160006001548060011c9060018116801561043b575b6020831081146104275782855290811561040b57506001146103b4575b50819003601f01601f191681019067ffffffffffffffff82118183101761039e576040829052819061039a9082610805565b0390f35b634e487b7160e01b600052604160045260246000fd5b600160009081529091507fb10e2d527612073b26eecdfd717e6a320cf44b4afac2b0732d9fcbe2b7fa0cf65b8282106103f557506020915082010182610368565b60018160209254838588010152019101906103e0565b90506020925060ff191682840152151560051b82010182610368565b634e487b7160e01b84526022600452602484fd5b91607f169161034b565b346100ea5760203660031901126100ea5761045e61084e565b6338377508600c52600052602080600c2054604051908152f35b346100ea5760203660031901126100ea5761049161084e565b6387a211a2600c52600052602080600c2054604051908152f35b346100ea5760403660031901126100ea576104c461084e565b602435906805345cdf77eb68f44c54828101908110610530576805345cdf77eb68f44c556387a211a2600c526000526020600c20818154019055602052600c5160601c60007fddf252ad1be2c89b69c2b068fc378daa952ba7f163c4a11628f55a4df523b3ef602080a3005b63e5cfe9576000526004601cfd5b346100ea5760003660031901126100ea57602060a061055b61087a565b828151910120604051907f8b73c3c69bb8fe3d512ecc4cf759cc79239f7b179b0ffacaa9a75d522b39400f8252838201527fc89efdaa54c0f20c7adf612882df0950f5a951637e0307cdcb4c672f298b8bc6604082015246606082015230608082015220604051908152f35b346100ea5760003660031901126100ea57602060405160ff7f0000000000000000000000000000000000000000000000000000000000000000168152f35b346100ea5760603660031901126100ea5761061e61084e565b610626610864565b604435908260601b33602052637f5e9f208117600c526034600c209081549182196106bb575b506387a211a2915017600c526020600c2080548084116103145783900390556000526020600c20818154019055602052600c5160601c9060018060a01b03167fddf252ad1be2c89b69c2b068fc378daa952ba7f163c4a11628f55a4df523b3ef602080a3602060405160018152f35b8285116106d257846387a211a2930390558561064c565b6313be252b6000526004601cfd5b346100ea5760003660031901126100ea577f000000000000000000000000000000000000000000000000000000000000000060ff7f000000000000000000000000000000000000000000000000000000000000000016604d811161075d57600a0a9081810291818304149015171561075d57602090604051908152f35b634e487b7160e01b600052601160045260246000fd5b346100ea5760403660031901126100ea5761078c61084e565b60243590602052637f5e9f20600c5233600052806034600c2055600052602c5160601c337f8c5be1e5ebec7d5bd14f71427d1e84f3dd0314c0f7b2291e5b200ac8c7c3b92560206000a3602060405160018152f35b346100ea5760003660031901126100ea5761039a6107fd61087a565b604051918291825b91909160208152825180602083015260005b818110610838575060409293506000838284010152601f8019910116010190565b8060208092870101516040828601015201610817565b600435906001600160a01b03821682036100ea57565b602435906001600160a01b03821682036100ea57565b60405190600080548060011c90600181168015610945575b6020831081146104275782865290811561092957506001146108d4575b50829003601f01601f1916820167ffffffffffffffff81118382101761039e57604052565b60008080529091507f290decd9548b62a8d60345a988386fc84ba6bc95484008f6362f93160ef3e5635b828210610913575060209150830101386108af565b60018160209254838589010152019101906108fe565b90506020925060ff191682850152151560051b830101386108af565b91607f169161089256fea2646970667358221220aa410c6046cba1dc1f2f86ed14152b72ff7e6949c13ff4c10bca4938227ef69f64736f6c634300081c0033000000000000000000000000000000000000000000000000000000000000008000000000000000000000000000000000000000000000000000000000000000c0000000000000000000000000000000000000000000000000000000000000000600000000000000000000000000000000000000000000000000000000000f42400000000000000000000000000000000000000000000000000000000000000004446f6765000000000000000000000000000000000000000000000000000000000000000000000000000000000000000000000000000000000000000000000004444f474500000000000000000000000000000000000000000000000000000000",
        "nonce": "0x1",
        "chainId": "0x138b"
      },
      "additionalContracts": [],
      "isFixedGasLimit": false
    },
    {
      "hash": "0x9ae31f3e8b8d2ef947491f94f36ef8f4e5da0e2f8ae0f052311882407d063a16",
      "transactionType": "CREATE",
      "contractName": "Tkn",
      "contractAddress": "0x7684650556491e2e6fa4c9b308217f2914fa70a9",
      "function": null,
      "arguments": [
        "Shib",
        "SHIB",
        "6",
        "1000000"
      ],
      "transaction": {
        "from": "0x14ffb23ad08f4ba3712ac6167dc69d6c54a09e6f",
        "gas": "0x11152675f",
        "value": "0x0",
        "input": "0x60c06040523461041357610e2e8038038061001981610418565b92833981016080828203126104135781516001600160401b038111610413578161004491840161043d565b602083015190916001600160401b0382116104135761006491840161043d565b91604081015160ff811691828203610413576060015160a0819052835190936001600160401b0382116103135760005490600182811c92168015610409575b60208310146102f35781601f84931161039a575b50602090601f831160011461033457600092610329575b50508160011b916000199060031b1c1916176000555b83516001600160401b03811161031357600154600181811c91168015610309575b60208210146102f357601f811161028e575b50602094601f82116001146102275794819293949560009261021c575b50508160011b916000199060031b1c1916176001555b608052604d811161020657600a0a90818102918183041490151715610206576805345cdf77eb68f44c548181019081106101f8576805345cdf77eb68f44c556387a211a2600c52336000526020600c20818154019055602052600c5160601c60007fddf252ad1be2c89b69c2b068fc378daa952ba7f163c4a11628f55a4df523b3ef602080a360405161098590816104a982396080518181816105e10152610716015260a051816106f30152f35b63e5cfe9576000526004601cfd5b634e487b7160e01b600052601160045260246000fd5b015190503880610134565b601f198216956001600052806000209160005b8881106102765750836001959697981061025d575b505050811b0160015561014a565b015160001960f88460031b161c1916905538808061024f565b9192602060018192868501518155019401920161023a565b60016000527fb10e2d527612073b26eecdfd717e6a320cf44b4afac2b0732d9fcbe2b7fa0cf6601f830160051c810191602084106102e9575b601f0160051c01905b8181106102dd5750610117565b600081556001016102d0565b90915081906102c7565b634e487b7160e01b600052602260045260246000fd5b90607f1690610105565b634e487b7160e01b600052604160045260246000fd5b0151905038806100ce565b60008080528281209350601f198516905b8181106103825750908460019594939210610369575b505050811b016000556100e4565b015160001960f88460031b161c1916905538808061035b565b92936020600181928786015181550195019301610345565b600080529091507f290decd9548b62a8d60345a988386fc84ba6bc95484008f6362f93160ef3e563601f840160051c810191602085106103ff575b90601f859493920160051c01905b8181106103f057506100b7565b600081558493506001016103e3565b90915081906103d5565b91607f16916100a3565b600080fd5b6040519190601f01601f191682016001600160401b0381118382101761031357604052565b81601f82011215610413578051906001600160401b0382116103135761046c601f8301601f1916602001610418565b92828452602083830101116104135760005b82811061049357505060206000918301015290565b8060208092840101518282870101520161047e56fe6080604052600436101561001257600080fd5b60003560e01c806306fdde03146107e1578063095ea7b31461077357806318160ddd146106e057806323b872dd14610605578063313ce567146105c75780633644e5151461053e57806340c10f19146104ab57806370a08231146104785780637ecebe001461044557806395d89b4114610322578063a9059cbb14610290578063d505accf146100ef5763dd62ed3e146100ab57600080fd5b346100ea5760403660031901126100ea576100c461084e565b6100cc610864565b602052637f5e9f20600c5260005260206034600c2054604051908152f35b600080fd5b346100ea5760e03660031901126100ea5761010861084e565b610110610864565b6084359160643560443560ff851685036100ea5761012c61087a565b6020815191012090824211610282576040519360018060a01b03169460018060a01b03169565383775081901600e528560005260c06020600c20958654957f8b73c3c69bb8fe3d512ecc4cf759cc79239f7b179b0ffacaa9a75d522b39400f8252602082019586528660408301967fc89efdaa54c0f20c7adf612882df0950f5a951637e0307cdcb4c672f298b8bc688528b6060850198468a528c608087019330855260a08820602e527f6e71edae12b1b97f4d1f60370fef10105fa2faae0126114a169c64845d6126c9885252528688525260a082015220604e526042602c2060005260ff1660205260a43560405260c4356060526020806080600060015afa93853d5103610274577f8c5be1e5ebec7d5bd14f71427d1e84f3dd0314c0f7b2291e5b200ac8c7c3b92594602094019055856303faf4f960a51b176040526034602c2055a3005b63ddafbaef6000526004601cfd5b631a15a3cc6000526004601cfd5b346100ea5760403660031901126100ea576102a961084e565b602435906387a211a2600c52336000526020600c2080548084116103145783900390556000526020600c20818154019055602052600c5160601c337fddf252ad1be2c89b69c2b068fc378daa952ba7f163c4a11628f55a4df523b3ef602080a3602060405160018152f35b63f4d678b86000526004601cfd5b346100ea5760003660031901126100ea5760405160006001548060011c9060018116801561043b575b6020831081146104275782855290811561040b57506001146103b4575b50819003601f01601f191681019067ffffffffffffffff82118183101761039e576040829052819061039a9082610805565b0390f35b634e487b7160e01b600052604160045260246000fd5b600160009081529091507fb10e2d527612073b26eecdfd717e6a320cf44b4afac2b0732d9fcbe2b7fa0cf65b8282106103f557506020915082010182610368565b60018160209254838588010152019101906103e0565b90506020925060ff191682840152151560051b82010182610368565b634e487b7160e01b84526022600452602484fd5b91607f169161034b565b346100ea5760203660031901126100ea5761045e61084e565b6338377508600c52600052602080600c2054604051908152f35b346100ea5760203660031901126100ea5761049161084e565b6387a211a2600c52600052602080600c2054604051908152f35b346100ea5760403660031901126100ea576104c461084e565b602435906805345cdf77eb68f44c54828101908110610530576805345cdf77eb68f44c556387a211a2600c526000526020600c20818154019055602052600c5160601c60007fddf252ad1be2c89b69c2b068fc378daa952ba7f163c4a11628f55a4df523b3ef602080a3005b63e5cfe9576000526004601cfd5b346100ea5760003660031901126100ea57602060a061055b61087a565b828151910120604051907f8b73c3c69bb8fe3d512ecc4cf759cc79239f7b179b0ffacaa9a75d522b39400f8252838201527fc89efdaa54c0f20c7adf612882df0950f5a951637e0307cdcb4c672f298b8bc6604082015246606082015230608082015220604051908152f35b346100ea5760003660031901126100ea57602060405160ff7f0000000000000000000000000000000000000000000000000000000000000000168152f35b346100ea5760603660031901126100ea5761061e61084e565b610626610864565b604435908260601b33602052637f5e9f208117600c526034600c209081549182196106bb575b506387a211a2915017600c526020600c2080548084116103145783900390556000526020600c20818154019055602052600c5160601c9060018060a01b03167fddf252ad1be2c89b69c2b068fc378daa952ba7f163c4a11628f55a4df523b3ef602080a3602060405160018152f35b8285116106d257846387a211a2930390558561064c565b6313be252b6000526004601cfd5b346100ea5760003660031901126100ea577f000000000000000000000000000000000000000000000000000000000000000060ff7f000000000000000000000000000000000000000000000000000000000000000016604d811161075d57600a0a9081810291818304149015171561075d57602090604051908152f35b634e487b7160e01b600052601160045260246000fd5b346100ea5760403660031901126100ea5761078c61084e565b60243590602052637f5e9f20600c5233600052806034600c2055600052602c5160601c337f8c5be1e5ebec7d5bd14f71427d1e84f3dd0314c0f7b2291e5b200ac8c7c3b92560206000a3602060405160018152f35b346100ea5760003660031901126100ea5761039a6107fd61087a565b604051918291825b91909160208152825180602083015260005b818110610838575060409293506000838284010152601f8019910116010190565b8060208092870101516040828601015201610817565b600435906001600160a01b03821682036100ea57565b602435906001600160a01b03821682036100ea57565b60405190600080548060011c90600181168015610945575b6020831081146104275782865290811561092957506001146108d4575b50829003601f01601f1916820167ffffffffffffffff81118382101761039e57604052565b60008080529091507f290decd9548b62a8d60345a988386fc84ba6bc95484008f6362f93160ef3e5635b828210610913575060209150830101386108af565b60018160209254838589010152019101906108fe565b90506020925060ff191682850152151560051b830101386108af565b91607f169161089256fea2646970667358221220aa410c6046cba1dc1f2f86ed14152b72ff7e6949c13ff4c10bca4938227ef69f64736f6c634300081c0033000000000000000000000000000000000000000000000000000000000000008000000000000000000000000000000000000000000000000000000000000000c0000000000000000000000000000000000000000000000000000000000000000600000000000000000000000000000000000000000000000000000000000f42400000000000000000000000000000000000000000000000000000000000000004536869620000000000000000000000000000000000000000000000000000000000000000000000000000000000000000000000000000000000000000000000045348494200000000000000000000000000000000000000000000000000000000",
        "nonce": "0x2",
        "chainId": "0x138b"
      },
      "additionalContracts": [],
      "isFixedGasLimit": false
    },
    {
      "hash": "0xbdd6ad6c007e30920c6a5449d30ef09a0389dd9eab63eac2d63b4cc634d80166",
      "transactionType": "CREATE",
      "contractName": "Tkn",
      "contractAddress": "0x8a76e8beb8b0380ebab2ded19bb087e9ada94378",
      "function": null,
      "arguments": [
        "Trump",
        "TRUMP",
        "6",
        "1000000"
      ],
      "transaction": {
        "from": "0x14ffb23ad08f4ba3712ac6167dc69d6c54a09e6f",
        "gas": "0x111551357",
        "value": "0x0",
        "input": "0x60c06040523461041357610e2e8038038061001981610418565b92833981016080828203126104135781516001600160401b038111610413578161004491840161043d565b602083015190916001600160401b0382116104135761006491840161043d565b91604081015160ff811691828203610413576060015160a0819052835190936001600160401b0382116103135760005490600182811c92168015610409575b60208310146102f35781601f84931161039a575b50602090601f831160011461033457600092610329575b50508160011b916000199060031b1c1916176000555b83516001600160401b03811161031357600154600181811c91168015610309575b60208210146102f357601f811161028e575b50602094601f82116001146102275794819293949560009261021c575b50508160011b916000199060031b1c1916176001555b608052604d811161020657600a0a90818102918183041490151715610206576805345cdf77eb68f44c548181019081106101f8576805345cdf77eb68f44c556387a211a2600c52336000526020600c20818154019055602052600c5160601c60007fddf252ad1be2c89b69c2b068fc378daa952ba7f163c4a11628f55a4df523b3ef602080a360405161098590816104a982396080518181816105e10152610716015260a051816106f30152f35b63e5cfe9576000526004601cfd5b634e487b7160e01b600052601160045260246000fd5b015190503880610134565b601f198216956001600052806000209160005b8881106102765750836001959697981061025d575b505050811b0160015561014a565b015160001960f88460031b161c1916905538808061024f565b9192602060018192868501518155019401920161023a565b60016000527fb10e2d527612073b26eecdfd717e6a320cf44b4afac2b0732d9fcbe2b7fa0cf6601f830160051c810191602084106102e9575b601f0160051c01905b8181106102dd5750610117565b600081556001016102d0565b90915081906102c7565b634e487b7160e01b600052602260045260246000fd5b90607f1690610105565b634e487b7160e01b600052604160045260246000fd5b0151905038806100ce565b60008080528281209350601f198516905b8181106103825750908460019594939210610369575b505050811b016000556100e4565b015160001960f88460031b161c1916905538808061035b565b92936020600181928786015181550195019301610345565b600080529091507f290decd9548b62a8d60345a988386fc84ba6bc95484008f6362f93160ef3e563601f840160051c810191602085106103ff575b90601f859493920160051c01905b8181106103f057506100b7565b600081558493506001016103e3565b90915081906103d5565b91607f16916100a3565b600080fd5b6040519190601f01601f191682016001600160401b0381118382101761031357604052565b81601f82011215610413578051906001600160401b0382116103135761046c601f8301601f1916602001610418565b92828452602083830101116104135760005b82811061049357505060206000918301015290565b8060208092840101518282870101520161047e56fe6080604052600436101561001257600080fd5b60003560e01c806306fdde03146107e1578063095ea7b31461077357806318160ddd146106e057806323b872dd14610605578063313ce567146105c75780633644e5151461053e57806340c10f19146104ab57806370a08231146104785780637ecebe001461044557806395d89b4114610322578063a9059cbb14610290578063d505accf146100ef5763dd62ed3e146100ab57600080fd5b346100ea5760403660031901126100ea576100c461084e565b6100cc610864565b602052637f5e9f20600c5260005260206034600c2054604051908152f35b600080fd5b346100ea5760e03660031901126100ea5761010861084e565b610110610864565b6084359160643560443560ff851685036100ea5761012c61087a565b6020815191012090824211610282576040519360018060a01b03169460018060a01b03169565383775081901600e528560005260c06020600c20958654957f8b73c3c69bb8fe3d512ecc4cf759cc79239f7b179b0ffacaa9a75d522b39400f8252602082019586528660408301967fc89efdaa54c0f20c7adf612882df0950f5a951637e0307cdcb4c672f298b8bc688528b6060850198468a528c608087019330855260a08820602e527f6e71edae12b1b97f4d1f60370fef10105fa2faae0126114a169c64845d6126c9885252528688525260a082015220604e526042602c2060005260ff1660205260a43560405260c4356060526020806080600060015afa93853d5103610274577f8c5be1e5ebec7d5bd14f71427d1e84f3dd0314c0f7b2291e5b200ac8c7c3b92594602094019055856303faf4f960a51b176040526034602c2055a3005b63ddafbaef6000526004601cfd5b631a15a3cc6000526004601cfd5b346100ea5760403660031901126100ea576102a961084e565b602435906387a211a2600c52336000526020600c2080548084116103145783900390556000526020600c20818154019055602052600c5160601c337fddf252ad1be2c89b69c2b068fc378daa952ba7f163c4a11628f55a4df523b3ef602080a3602060405160018152f35b63f4d678b86000526004601cfd5b346100ea5760003660031901126100ea5760405160006001548060011c9060018116801561043b575b6020831081146104275782855290811561040b57506001146103b4575b50819003601f01601f191681019067ffffffffffffffff82118183101761039e576040829052819061039a9082610805565b0390f35b634e487b7160e01b600052604160045260246000fd5b600160009081529091507fb10e2d527612073b26eecdfd717e6a320cf44b4afac2b0732d9fcbe2b7fa0cf65b8282106103f557506020915082010182610368565b60018160209254838588010152019101906103e0565b90506020925060ff191682840152151560051b82010182610368565b634e487b7160e01b84526022600452602484fd5b91607f169161034b565b346100ea5760203660031901126100ea5761045e61084e565b6338377508600c52600052602080600c2054604051908152f35b346100ea5760203660031901126100ea5761049161084e565b6387a211a2600c52600052602080600c2054604051908152f35b346100ea5760403660031901126100ea576104c461084e565b602435906805345cdf77eb68f44c54828101908110610530576805345cdf77eb68f44c556387a211a2600c526000526020600c20818154019055602052600c5160601c60007fddf252ad1be2c89b69c2b068fc378daa952ba7f163c4a11628f55a4df523b3ef602080a3005b63e5cfe9576000526004601cfd5b346100ea5760003660031901126100ea57602060a061055b61087a565b828151910120604051907f8b73c3c69bb8fe3d512ecc4cf759cc79239f7b179b0ffacaa9a75d522b39400f8252838201527fc89efdaa54c0f20c7adf612882df0950f5a951637e0307cdcb4c672f298b8bc6604082015246606082015230608082015220604051908152f35b346100ea5760003660031901126100ea57602060405160ff7f0000000000000000000000000000000000000000000000000000000000000000168152f35b346100ea5760603660031901126100ea5761061e61084e565b610626610864565b604435908260601b33602052637f5e9f208117600c526034600c209081549182196106bb575b506387a211a2915017600c526020600c2080548084116103145783900390556000526020600c20818154019055602052600c5160601c9060018060a01b03167fddf252ad1be2c89b69c2b068fc378daa952ba7f163c4a11628f55a4df523b3ef602080a3602060405160018152f35b8285116106d257846387a211a2930390558561064c565b6313be252b6000526004601cfd5b346100ea5760003660031901126100ea577f000000000000000000000000000000000000000000000000000000000000000060ff7f000000000000000000000000000000000000000000000000000000000000000016604d811161075d57600a0a9081810291818304149015171561075d57602090604051908152f35b634e487b7160e01b600052601160045260246000fd5b346100ea5760403660031901126100ea5761078c61084e565b60243590602052637f5e9f20600c5233600052806034600c2055600052602c5160601c337f8c5be1e5ebec7d5bd14f71427d1e84f3dd0314c0f7b2291e5b200ac8c7c3b92560206000a3602060405160018152f35b346100ea5760003660031901126100ea5761039a6107fd61087a565b604051918291825b91909160208152825180602083015260005b818110610838575060409293506000838284010152601f8019910116010190565b8060208092870101516040828601015201610817565b600435906001600160a01b03821682036100ea57565b602435906001600160a01b03821682036100ea57565b60405190600080548060011c90600181168015610945575b6020831081146104275782865290811561092957506001146108d4575b50829003601f01601f1916820167ffffffffffffffff81118382101761039e57604052565b60008080529091507f290decd9548b62a8d60345a988386fc84ba6bc95484008f6362f93160ef3e5635b828210610913575060209150830101386108af565b60018160209254838589010152019101906108fe565b90506020925060ff191682850152151560051b830101386108af565b91607f169161089256fea2646970667358221220aa410c6046cba1dc1f2f86ed14152b72ff7e6949c13ff4c10bca4938227ef69f64736f6c634300081c0033000000000000000000000000000000000000000000000000000000000000008000000000000000000000000000000000000000000000000000000000000000c0000000000000000000000000000000000000000000000000000000000000000600000000000000000000000000000000000000000000000000000000000f424000000000000000000000000000000000000000000000000000000000000000055472756d7000000000000000000000000000000000000000000000000000000000000000000000000000000000000000000000000000000000000000000000055452554d50000000000000000000000000000000000000000000000000000000",
        "nonce": "0x3",
        "chainId": "0x138b"
      },
      "additionalContracts": [],
      "isFixedGasLimit": false
    },
    {
      "hash": "0x8fb38030e78144fd39b4c75fcb1fc3733d8943d33e4ecefefbe37a814151e915",
      "transactionType": "CREATE",
      "contractName": "Tkn",
      "contractAddress": "0x8abda98a48b9cbdf39cd9566c3099ce05ad5a61e",
      "function": null,
      "arguments": [
        "USDC",
        "USDC",
        "6",
        "1000000000000000000"
      ],
      "transaction": {
        "from": "0x14ffb23ad08f4ba3712ac6167dc69d6c54a09e6f",
        "gas": "0x111566954",
        "value": "0x0",
        "input": "0x60c06040523461041357610e2e8038038061001981610418565b92833981016080828203126104135781516001600160401b038111610413578161004491840161043d565b602083015190916001600160401b0382116104135761006491840161043d565b91604081015160ff811691828203610413576060015160a0819052835190936001600160401b0382116103135760005490600182811c92168015610409575b60208310146102f35781601f84931161039a575b50602090601f831160011461033457600092610329575b50508160011b916000199060031b1c1916176000555b83516001600160401b03811161031357600154600181811c91168015610309575b60208210146102f357601f811161028e575b50602094601f82116001146102275794819293949560009261021c575b50508160011b916000199060031b1c1916176001555b608052604d811161020657600a0a90818102918183041490151715610206576805345cdf77eb68f44c548181019081106101f8576805345cdf77eb68f44c556387a211a2600c52336000526020600c20818154019055602052600c5160601c60007fddf252ad1be2c89b69c2b068fc378daa952ba7f163c4a11628f55a4df523b3ef602080a360405161098590816104a982396080518181816105e10152610716015260a051816106f30152f35b63e5cfe9576000526004601cfd5b634e487b7160e01b600052601160045260246000fd5b015190503880610134565b601f198216956001600052806000209160005b8881106102765750836001959697981061025d575b505050811b0160015561014a565b015160001960f88460031b161c1916905538808061024f565b9192602060018192868501518155019401920161023a565b60016000527fb10e2d527612073b26eecdfd717e6a320cf44b4afac2b0732d9fcbe2b7fa0cf6601f830160051c810191602084106102e9575b601f0160051c01905b8181106102dd5750610117565b600081556001016102d0565b90915081906102c7565b634e487b7160e01b600052602260045260246000fd5b90607f1690610105565b634e487b7160e01b600052604160045260246000fd5b0151905038806100ce565b60008080528281209350601f198516905b8181106103825750908460019594939210610369575b505050811b016000556100e4565b015160001960f88460031b161c1916905538808061035b565b92936020600181928786015181550195019301610345565b600080529091507f290decd9548b62a8d60345a988386fc84ba6bc95484008f6362f93160ef3e563601f840160051c810191602085106103ff575b90601f859493920160051c01905b8181106103f057506100b7565b600081558493506001016103e3565b90915081906103d5565b91607f16916100a3565b600080fd5b6040519190601f01601f191682016001600160401b0381118382101761031357604052565b81601f82011215610413578051906001600160401b0382116103135761046c601f8301601f1916602001610418565b92828452602083830101116104135760005b82811061049357505060206000918301015290565b8060208092840101518282870101520161047e56fe6080604052600436101561001257600080fd5b60003560e01c806306fdde03146107e1578063095ea7b31461077357806318160ddd146106e057806323b872dd14610605578063313ce567146105c75780633644e5151461053e57806340c10f19146104ab57806370a08231146104785780637ecebe001461044557806395d89b4114610322578063a9059cbb14610290578063d505accf146100ef5763dd62ed3e146100ab57600080fd5b346100ea5760403660031901126100ea576100c461084e565b6100cc610864565b602052637f5e9f20600c5260005260206034600c2054604051908152f35b600080fd5b346100ea5760e03660031901126100ea5761010861084e565b610110610864565b6084359160643560443560ff851685036100ea5761012c61087a565b6020815191012090824211610282576040519360018060a01b03169460018060a01b03169565383775081901600e528560005260c06020600c20958654957f8b73c3c69bb8fe3d512ecc4cf759cc79239f7b179b0ffacaa9a75d522b39400f8252602082019586528660408301967fc89efdaa54c0f20c7adf612882df0950f5a951637e0307cdcb4c672f298b8bc688528b6060850198468a528c608087019330855260a08820602e527f6e71edae12b1b97f4d1f60370fef10105fa2faae0126114a169c64845d6126c9885252528688525260a082015220604e526042602c2060005260ff1660205260a43560405260c4356060526020806080600060015afa93853d5103610274577f8c5be1e5ebec7d5bd14f71427d1e84f3dd0314c0f7b2291e5b200ac8c7c3b92594602094019055856303faf4f960a51b176040526034602c2055a3005b63ddafbaef6000526004601cfd5b631a15a3cc6000526004601cfd5b346100ea5760403660031901126100ea576102a961084e565b602435906387a211a2600c52336000526020600c2080548084116103145783900390556000526020600c20818154019055602052600c5160601c337fddf252ad1be2c89b69c2b068fc378daa952ba7f163c4a11628f55a4df523b3ef602080a3602060405160018152f35b63f4d678b86000526004601cfd5b346100ea5760003660031901126100ea5760405160006001548060011c9060018116801561043b575b6020831081146104275782855290811561040b57506001146103b4575b50819003601f01601f191681019067ffffffffffffffff82118183101761039e576040829052819061039a9082610805565b0390f35b634e487b7160e01b600052604160045260246000fd5b600160009081529091507fb10e2d527612073b26eecdfd717e6a320cf44b4afac2b0732d9fcbe2b7fa0cf65b8282106103f557506020915082010182610368565b60018160209254838588010152019101906103e0565b90506020925060ff191682840152151560051b82010182610368565b634e487b7160e01b84526022600452602484fd5b91607f169161034b565b346100ea5760203660031901126100ea5761045e61084e565b6338377508600c52600052602080600c2054604051908152f35b346100ea5760203660031901126100ea5761049161084e565b6387a211a2600c52600052602080600c2054604051908152f35b346100ea5760403660031901126100ea576104c461084e565b602435906805345cdf77eb68f44c54828101908110610530576805345cdf77eb68f44c556387a211a2600c526000526020600c20818154019055602052600c5160601c60007fddf252ad1be2c89b69c2b068fc378daa952ba7f163c4a11628f55a4df523b3ef602080a3005b63e5cfe9576000526004601cfd5b346100ea5760003660031901126100ea57602060a061055b61087a565b828151910120604051907f8b73c3c69bb8fe3d512ecc4cf759cc79239f7b179b0ffacaa9a75d522b39400f8252838201527fc89efdaa54c0f20c7adf612882df0950f5a951637e0307cdcb4c672f298b8bc6604082015246606082015230608082015220604051908152f35b346100ea5760003660031901126100ea57602060405160ff7f0000000000000000000000000000000000000000000000000000000000000000168152f35b346100ea5760603660031901126100ea5761061e61084e565b610626610864565b604435908260601b33602052637f5e9f208117600c526034600c209081549182196106bb575b506387a211a2915017600c526020600c2080548084116103145783900390556000526020600c20818154019055602052600c5160601c9060018060a01b03167fddf252ad1be2c89b69c2b068fc378daa952ba7f163c4a11628f55a4df523b3ef602080a3602060405160018152f35b8285116106d257846387a211a2930390558561064c565b6313be252b6000526004601cfd5b346100ea5760003660031901126100ea577f000000000000000000000000000000000000000000000000000000000000000060ff7f000000000000000000000000000000000000000000000000000000000000000016604d811161075d57600a0a9081810291818304149015171561075d57602090604051908152f35b634e487b7160e01b600052601160045260246000fd5b346100ea5760403660031901126100ea5761078c61084e565b60243590602052637f5e9f20600c5233600052806034600c2055600052602c5160601c337f8c5be1e5ebec7d5bd14f71427d1e84f3dd0314c0f7b2291e5b200ac8c7c3b92560206000a3602060405160018152f35b346100ea5760003660031901126100ea5761039a6107fd61087a565b604051918291825b91909160208152825180602083015260005b818110610838575060409293506000838284010152601f8019910116010190565b8060208092870101516040828601015201610817565b600435906001600160a01b03821682036100ea57565b602435906001600160a01b03821682036100ea57565b60405190600080548060011c90600181168015610945575b6020831081146104275782865290811561092957506001146108d4575b50829003601f01601f1916820167ffffffffffffffff81118382101761039e57604052565b60008080529091507f290decd9548b62a8d60345a988386fc84ba6bc95484008f6362f93160ef3e5635b828210610913575060209150830101386108af565b60018160209254838589010152019101906108fe565b90506020925060ff191682850152151560051b830101386108af565b91607f169161089256fea2646970667358221220aa410c6046cba1dc1f2f86ed14152b72ff7e6949c13ff4c10bca4938227ef69f64736f6c634300081c0033000000000000000000000000000000000000000000000000000000000000008000000000000000000000000000000000000000000000000000000000000000c000000000000000000000000000000000000000000000000000000000000000060000000000000000000000000000000000000000000000000de0b6b3a76400000000000000000000000000000000000000000000000000000000000000000004555344430000000000000000000000000000000000000000000000000000000000000000000000000000000000000000000000000000000000000000000000045553444300000000000000000000000000000000000000000000000000000000",
        "nonce": "0x4",
        "chainId": "0x138b"
      },
      "additionalContracts": [],
      "isFixedGasLimit": false
    },
    {
      "hash": "0x9450504350d58d4b063c44e85f3d99b6bf6c36580e6b8e3216828fe5df975223",
      "transactionType": "CREATE",
      "contractName": "Pair",
      "contractAddress": "0x610233b7c78ebb66b12019aac37449f50e37dbc8",
      "function": null,
      "arguments": [
        "0x47AAc60014410cE6dE3A315dFe2EE2a7698C897f",
        "0x8aBda98A48B9CBdf39cd9566c3099Ce05ad5a61e"
      ],
      "transaction": {
        "from": "0x14ffb23ad08f4ba3712ac6167dc69d6c54a09e6f",
        "gas": "0x130325401",
        "value": "0x0",
        "input": "0x60c0346100c257601f610de338819003918201601f19168301916001600160401b038311848410176100c75780849260409485528339810103126100c257610052602061004b836100dd565b92016100dd565b6001600160a01b039182166080521660a052604051610cf190816100f2823960805181818160e7015281816104e90152818161087f0152610bd9015260a0518181816098015281816101430152818161026c015281816103da015281816104730152818161054e01526108d60152f35b600080fd5b634e487b7160e01b600052604160045260246000fd5b51906001600160a01b03821682036100c25756fe608080604052600436101561001357600080fd5b60003560e01c9081630dfe168114610bc65750806318160ddd14610ba8578063443cb4bc14610b8a5780635a76f25e14610b6c57806370a0823114610b325780639c8f9f23146108535780639cd441da146104a4578063d004f0f7146100cc5763d21220a71461008257600080fd5b346100c75760003660031901126100c7576040517f00000000000000000000000000000000000000000000000000000000000000006001600160a01b03168152602090f35b600080fd5b346100c75760403660031901126100c7576100e5610c08565b7f0000000000000000000000000000000000000000000000000000000000000000906001600160a01b038083169160243591168083149081908115610471575b501561043c57811561040757600090156103cd5750600054926001547f00000000000000000000000000000000000000000000000000000000000000009490915b6040516323b872dd60e01b81523360048201523060248201526044810185905290602090829060649082906000906001600160a01b03165af1801561032c576103b0575b506103e583028381046103e50361039a576101dd926101d16103e86101d793048092610c56565b92610cae565b90610c69565b60405163a9059cbb60e01b81523360048201526024810182905293909290602090859060449082906000906001600160a01b03165af190811561032c5760249460209261036f575b506040516370a0823160e01b815230600482015294859182905afa92831561032c57600093610338575b506040516370a0823160e01b8152306004820152926020846024817f00000000000000000000000000000000000000000000000000000000000000006001600160a01b03165afa93841561032c576000946102f5575b509283602094600055816001556040519283528385840152604083015260608201527f49926bbebe8474393f434dfa4f78694c0923efa07d19f2284518bfabd06eb73760803392a2604051908152f35b6020813d602011610324575b8161030e60209383610c1e565b810103126103205751935060206102a5565b8480fd5b3d9150610301565b6040513d6000823e3d90fd5b90926020823d602011610367575b8161035360209383610c1e565b81010312610364575051918361024f565b80fd5b3d9150610346565b61038e90833d8511610393575b6103868183610c1e565b810190610c96565b610225565b503d61037c565b634e487b7160e01b600052601160045260246000fd5b6103c89060203d602011610393576103868183610c1e565b6101aa565b60015490549293508392907f00000000000000000000000000000000000000000000000000000000000000006001600160a01b0316610166565b60405162461bcd60e51b815260206004820152600d60248201526c0616d6f756e7420696e203d203609c1b6044820152606490fd5b60405162461bcd60e51b815260206004820152600d60248201526c34b73b30b634b2103a37b5b2b760991b6044820152606490fd5b7f00000000000000000000000000000000000000000000000000000000000000006001600160a01b031614905085610125565b346100c75760403660031901126100c7576040516323b872dd60e01b815233600480830191909152306024808401919091529035604483018190526001600160a01b037f000000000000000000000000000000000000000000000000000000000000000016929135916020816064816000885af1801561032c57610836575b506040516323b872dd60e01b8152336004820152306024820152604481018390526001600160a01b037f00000000000000000000000000000000000000000000000000000000000000001692906020816064816000885af1801561032c57610819575b50600054801580159061080e575b6107bb575b600254908161077c5750506105ae8183610c56565b6000600382111561076e5750808060011c6001810180911161039a57905b82821061074f5750505b925b831561071d576020602495336000526003825260406000206105fb878254610cae565b905561060986600254610cae565b6002556040516370a0823160e01b815230600482015296879182905afa94851561032c576000956106e8575b50936020602495604051968780926370a0823160e01b82523060048301525afa90811561032c576000916106b3575b6020955060005560015560405191600083528385840152604083015260608201527fadfbe721f8b3bb7ddf10897846890e8de59b483d7af2a0f22e3d23c25d49370f60803392a2604051908152f35b90506020853d6020116106e0575b816106ce60209383610c1e565b810103126100c7576020945190610664565b3d91506106c1565b94506020853d602011610715575b8161070360209383610c1e565b810103126100c7579351936020610635565b3d91506106f6565b60405162461bcd60e51b815260206004820152600a6024820152690736861726573203d20360b41b6044820152606490fd5b909150610765826107608184610c69565b610cae565b60011c906105cc565b90156105d6575060016105d6565b61079c6107956107a5926107908588610c56565b610c69565b9284610c56565b60015490610c69565b8082116107b457505b926105d8565b90506107ae565b6107c58282610c56565b6107d184600154610c56565b146105995760405162461bcd60e51b815260206004820152601060248201526f78202f207920213d206478202f20647960801b6044820152606490fd5b506001541515610594565b6108319060203d602011610393576103868183610c1e565b610586565b61084e9060203d602011610393576103868183610c1e565b610523565b346100c75760203660031901126100c7576040516370a0823160e01b81523060048281019190915235907f00000000000000000000000000000000000000000000000000000000000000006001600160a01b031690602081602481855afa90811561032c57600091610b00575b506040516370a0823160e01b81523060048201527f00000000000000000000000000000000000000000000000000000000000000006001600160a01b0316939092602084602481885afa93841561032c57600094610acc575b506109248383610c56565b936109406109356002548097610c69565b956107908386610c56565b9385151580610ac3575b15610a8557846109878761098d933360005260036020526040600020610971898254610c89565b905561097f88600254610c89565b600255610c89565b92610c89565b600091825560015560405163a9059cbb60e01b81523360048201526024810186905291602091839160449183915af1801561032c57610a68575b5060405163a9059cbb60e01b81523360048201526024810183905293602090859060449082906000905af193841561032c57604094610a4b575b5083519060018252602082015282848201528160608201527fadfbe721f8b3bb7ddf10897846890e8de59b483d7af2a0f22e3d23c25d49370f60803392a282519182526020820152f35b610a639060203d602011610393576103868183610c1e565b610a01565b610a809060203d602011610393576103868183610c1e565b6109c7565b60405162461bcd60e51b81526020600482015260166024820152750616d6f756e7430206f7220616d6f756e7431203d20360541b6044820152606490fd5b5084151561094a565b90936020823d602011610af8575b81610ae760209383610c1e565b810103126103645750519285610919565b3d9150610ada565b906020823d602011610b2a575b81610b1a60209383610c1e565b81010312610364575051836108c0565b3d9150610b0d565b346100c75760203660031901126100c7576001600160a01b03610b53610c08565b1660005260036020526020604060002054604051908152f35b346100c75760003660031901126100c7576020600154604051908152f35b346100c75760003660031901126100c7576020600054604051908152f35b346100c75760003660031901126100c7576020600254604051908152f35b346100c75760003660031901126100c7577f00000000000000000000000000000000000000000000000000000000000000006001600160a01b03168152602090f35b600435906001600160a01b03821682036100c757565b90601f8019910116810190811067ffffffffffffffff821117610c4057604052565b634e487b7160e01b600052604160045260246000fd5b8181029291811591840414171561039a57565b8115610c73570490565b634e487b7160e01b600052601260045260246000fd5b9190820391821161039a57565b908160209103126100c7575180151581036100c75790565b9190820180921161039a5756fea264697066735822122066f6c77d42ccdfb3d13e1cf4309fa38a02f8a7b9b3f030722ccaad5228d6801f64736f6c634300081c003300000000000000000000000047aac60014410ce6de3a315dfe2ee2a7698c897f0000000000000000000000008abda98a48b9cbdf39cd9566c3099ce05ad5a61e",
        "nonce": "0x5",
        "chainId": "0x138b"
      },
      "additionalContracts": [],
      "isFixedGasLimit": false
    },
    {
      "hash": "0x6be13f6e1394573065687b4193471eb605a2f6c40fff35d93f5623fb3de18aa8",
      "transactionType": "CREATE",
      "contractName": "Pair",
      "contractAddress": "0x3aaa24ade1bc2b98bb58bd6111e02dd7bd8702e1",
      "function": null,
      "arguments": [
        "0x85CB077DE6640eB393dBc0f275f08b2Bf2008Cb3",
        "0x8aBda98A48B9CBdf39cd9566c3099Ce05ad5a61e"
      ],
      "transaction": {
        "from": "0x14ffb23ad08f4ba3712ac6167dc69d6c54a09e6f",
        "gas": "0x130325401",
        "value": "0x0",
        "input": "0x60c0346100c257601f610de338819003918201601f19168301916001600160401b038311848410176100c75780849260409485528339810103126100c257610052602061004b836100dd565b92016100dd565b6001600160a01b039182166080521660a052604051610cf190816100f2823960805181818160e7015281816104e90152818161087f0152610bd9015260a0518181816098015281816101430152818161026c015281816103da015281816104730152818161054e01526108d60152f35b600080fd5b634e487b7160e01b600052604160045260246000fd5b51906001600160a01b03821682036100c25756fe608080604052600436101561001357600080fd5b60003560e01c9081630dfe168114610bc65750806318160ddd14610ba8578063443cb4bc14610b8a5780635a76f25e14610b6c57806370a0823114610b325780639c8f9f23146108535780639cd441da146104a4578063d004f0f7146100cc5763d21220a71461008257600080fd5b346100c75760003660031901126100c7576040517f00000000000000000000000000000000000000000000000000000000000000006001600160a01b03168152602090f35b600080fd5b346100c75760403660031901126100c7576100e5610c08565b7f0000000000000000000000000000000000000000000000000000000000000000906001600160a01b038083169160243591168083149081908115610471575b501561043c57811561040757600090156103cd5750600054926001547f00000000000000000000000000000000000000000000000000000000000000009490915b6040516323b872dd60e01b81523360048201523060248201526044810185905290602090829060649082906000906001600160a01b03165af1801561032c576103b0575b506103e583028381046103e50361039a576101dd926101d16103e86101d793048092610c56565b92610cae565b90610c69565b60405163a9059cbb60e01b81523360048201526024810182905293909290602090859060449082906000906001600160a01b03165af190811561032c5760249460209261036f575b506040516370a0823160e01b815230600482015294859182905afa92831561032c57600093610338575b506040516370a0823160e01b8152306004820152926020846024817f00000000000000000000000000000000000000000000000000000000000000006001600160a01b03165afa93841561032c576000946102f5575b509283602094600055816001556040519283528385840152604083015260608201527f49926bbebe8474393f434dfa4f78694c0923efa07d19f2284518bfabd06eb73760803392a2604051908152f35b6020813d602011610324575b8161030e60209383610c1e565b810103126103205751935060206102a5565b8480fd5b3d9150610301565b6040513d6000823e3d90fd5b90926020823d602011610367575b8161035360209383610c1e565b81010312610364575051918361024f565b80fd5b3d9150610346565b61038e90833d8511610393575b6103868183610c1e565b810190610c96565b610225565b503d61037c565b634e487b7160e01b600052601160045260246000fd5b6103c89060203d602011610393576103868183610c1e565b6101aa565b60015490549293508392907f00000000000000000000000000000000000000000000000000000000000000006001600160a01b0316610166565b60405162461bcd60e51b815260206004820152600d60248201526c0616d6f756e7420696e203d203609c1b6044820152606490fd5b60405162461bcd60e51b815260206004820152600d60248201526c34b73b30b634b2103a37b5b2b760991b6044820152606490fd5b7f00000000000000000000000000000000000000000000000000000000000000006001600160a01b031614905085610125565b346100c75760403660031901126100c7576040516323b872dd60e01b815233600480830191909152306024808401919091529035604483018190526001600160a01b037f000000000000000000000000000000000000000000000000000000000000000016929135916020816064816000885af1801561032c57610836575b506040516323b872dd60e01b8152336004820152306024820152604481018390526001600160a01b037f00000000000000000000000000000000000000000000000000000000000000001692906020816064816000885af1801561032c57610819575b50600054801580159061080e575b6107bb575b600254908161077c5750506105ae8183610c56565b6000600382111561076e5750808060011c6001810180911161039a57905b82821061074f5750505b925b831561071d576020602495336000526003825260406000206105fb878254610cae565b905561060986600254610cae565b6002556040516370a0823160e01b815230600482015296879182905afa94851561032c576000956106e8575b50936020602495604051968780926370a0823160e01b82523060048301525afa90811561032c576000916106b3575b6020955060005560015560405191600083528385840152604083015260608201527fadfbe721f8b3bb7ddf10897846890e8de59b483d7af2a0f22e3d23c25d49370f60803392a2604051908152f35b90506020853d6020116106e0575b816106ce60209383610c1e565b810103126100c7576020945190610664565b3d91506106c1565b94506020853d602011610715575b8161070360209383610c1e565b810103126100c7579351936020610635565b3d91506106f6565b60405162461bcd60e51b815260206004820152600a6024820152690736861726573203d20360b41b6044820152606490fd5b909150610765826107608184610c69565b610cae565b60011c906105cc565b90156105d6575060016105d6565b61079c6107956107a5926107908588610c56565b610c69565b9284610c56565b60015490610c69565b8082116107b457505b926105d8565b90506107ae565b6107c58282610c56565b6107d184600154610c56565b146105995760405162461bcd60e51b815260206004820152601060248201526f78202f207920213d206478202f20647960801b6044820152606490fd5b506001541515610594565b6108319060203d602011610393576103868183610c1e565b610586565b61084e9060203d602011610393576103868183610c1e565b610523565b346100c75760203660031901126100c7576040516370a0823160e01b81523060048281019190915235907f00000000000000000000000000000000000000000000000000000000000000006001600160a01b031690602081602481855afa90811561032c57600091610b00575b506040516370a0823160e01b81523060048201527f00000000000000000000000000000000000000000000000000000000000000006001600160a01b0316939092602084602481885afa93841561032c57600094610acc575b506109248383610c56565b936109406109356002548097610c69565b956107908386610c56565b9385151580610ac3575b15610a8557846109878761098d933360005260036020526040600020610971898254610c89565b905561097f88600254610c89565b600255610c89565b92610c89565b600091825560015560405163a9059cbb60e01b81523360048201526024810186905291602091839160449183915af1801561032c57610a68575b5060405163a9059cbb60e01b81523360048201526024810183905293602090859060449082906000905af193841561032c57604094610a4b575b5083519060018252602082015282848201528160608201527fadfbe721f8b3bb7ddf10897846890e8de59b483d7af2a0f22e3d23c25d49370f60803392a282519182526020820152f35b610a639060203d602011610393576103868183610c1e565b610a01565b610a809060203d602011610393576103868183610c1e565b6109c7565b60405162461bcd60e51b81526020600482015260166024820152750616d6f756e7430206f7220616d6f756e7431203d20360541b6044820152606490fd5b5084151561094a565b90936020823d602011610af8575b81610ae760209383610c1e565b810103126103645750519285610919565b3d9150610ada565b906020823d602011610b2a575b81610b1a60209383610c1e565b81010312610364575051836108c0565b3d9150610b0d565b346100c75760203660031901126100c7576001600160a01b03610b53610c08565b1660005260036020526020604060002054604051908152f35b346100c75760003660031901126100c7576020600154604051908152f35b346100c75760003660031901126100c7576020600054604051908152f35b346100c75760003660031901126100c7576020600254604051908152f35b346100c75760003660031901126100c7577f00000000000000000000000000000000000000000000000000000000000000006001600160a01b03168152602090f35b600435906001600160a01b03821682036100c757565b90601f8019910116810190811067ffffffffffffffff821117610c4057604052565b634e487b7160e01b600052604160045260246000fd5b8181029291811591840414171561039a57565b8115610c73570490565b634e487b7160e01b600052601260045260246000fd5b9190820391821161039a57565b908160209103126100c7575180151581036100c75790565b9190820180921161039a5756fea264697066735822122066f6c77d42ccdfb3d13e1cf4309fa38a02f8a7b9b3f030722ccaad5228d6801f64736f6c634300081c003300000000000000000000000085cb077de6640eb393dbc0f275f08b2bf2008cb30000000000000000000000008abda98a48b9cbdf39cd9566c3099ce05ad5a61e",
        "nonce": "0x6",
        "chainId": "0x138b"
      },
      "additionalContracts": [],
      "isFixedGasLimit": false
    },
    {
      "hash": "0x403ce2861b9aa808cbe627b1adf7a3fbde96e7e3204000eab7fb7787fbf44d4b",
      "transactionType": "CREATE",
      "contractName": "Pair",
      "contractAddress": "0x943fe1262ddadcf725786fd7b845199c3eecc562",
      "function": null,
      "arguments": [
        "0x7684650556491E2e6fa4C9b308217f2914Fa70A9",
        "0x8aBda98A48B9CBdf39cd9566c3099Ce05ad5a61e"
      ],
      "transaction": {
        "from": "0x14ffb23ad08f4ba3712ac6167dc69d6c54a09e6f",
        "gas": "0x1303388ab",
        "value": "0x0",
        "input": "0x60c0346100c257601f610de338819003918201601f19168301916001600160401b038311848410176100c75780849260409485528339810103126100c257610052602061004b836100dd565b92016100dd565b6001600160a01b039182166080521660a052604051610cf190816100f2823960805181818160e7015281816104e90152818161087f0152610bd9015260a0518181816098015281816101430152818161026c015281816103da015281816104730152818161054e01526108d60152f35b600080fd5b634e487b7160e01b600052604160045260246000fd5b51906001600160a01b03821682036100c25756fe608080604052600436101561001357600080fd5b60003560e01c9081630dfe168114610bc65750806318160ddd14610ba8578063443cb4bc14610b8a5780635a76f25e14610b6c57806370a0823114610b325780639c8f9f23146108535780639cd441da146104a4578063d004f0f7146100cc5763d21220a71461008257600080fd5b346100c75760003660031901126100c7576040517f00000000000000000000000000000000000000000000000000000000000000006001600160a01b03168152602090f35b600080fd5b346100c75760403660031901126100c7576100e5610c08565b7f0000000000000000000000000000000000000000000000000000000000000000906001600160a01b038083169160243591168083149081908115610471575b501561043c57811561040757600090156103cd5750600054926001547f00000000000000000000000000000000000000000000000000000000000000009490915b6040516323b872dd60e01b81523360048201523060248201526044810185905290602090829060649082906000906001600160a01b03165af1801561032c576103b0575b506103e583028381046103e50361039a576101dd926101d16103e86101d793048092610c56565b92610cae565b90610c69565b60405163a9059cbb60e01b81523360048201526024810182905293909290602090859060449082906000906001600160a01b03165af190811561032c5760249460209261036f575b506040516370a0823160e01b815230600482015294859182905afa92831561032c57600093610338575b506040516370a0823160e01b8152306004820152926020846024817f00000000000000000000000000000000000000000000000000000000000000006001600160a01b03165afa93841561032c576000946102f5575b509283602094600055816001556040519283528385840152604083015260608201527f49926bbebe8474393f434dfa4f78694c0923efa07d19f2284518bfabd06eb73760803392a2604051908152f35b6020813d602011610324575b8161030e60209383610c1e565b810103126103205751935060206102a5565b8480fd5b3d9150610301565b6040513d6000823e3d90fd5b90926020823d602011610367575b8161035360209383610c1e565b81010312610364575051918361024f565b80fd5b3d9150610346565b61038e90833d8511610393575b6103868183610c1e565b810190610c96565b610225565b503d61037c565b634e487b7160e01b600052601160045260246000fd5b6103c89060203d602011610393576103868183610c1e565b6101aa565b60015490549293508392907f00000000000000000000000000000000000000000000000000000000000000006001600160a01b0316610166565b60405162461bcd60e51b815260206004820152600d60248201526c0616d6f756e7420696e203d203609c1b6044820152606490fd5b60405162461bcd60e51b815260206004820152600d60248201526c34b73b30b634b2103a37b5b2b760991b6044820152606490fd5b7f00000000000000000000000000000000000000000000000000000000000000006001600160a01b031614905085610125565b346100c75760403660031901126100c7576040516323b872dd60e01b815233600480830191909152306024808401919091529035604483018190526001600160a01b037f000000000000000000000000000000000000000000000000000000000000000016929135916020816064816000885af1801561032c57610836575b506040516323b872dd60e01b8152336004820152306024820152604481018390526001600160a01b037f00000000000000000000000000000000000000000000000000000000000000001692906020816064816000885af1801561032c57610819575b50600054801580159061080e575b6107bb575b600254908161077c5750506105ae8183610c56565b6000600382111561076e5750808060011c6001810180911161039a57905b82821061074f5750505b925b831561071d576020602495336000526003825260406000206105fb878254610cae565b905561060986600254610cae565b6002556040516370a0823160e01b815230600482015296879182905afa94851561032c576000956106e8575b50936020602495604051968780926370a0823160e01b82523060048301525afa90811561032c576000916106b3575b6020955060005560015560405191600083528385840152604083015260608201527fadfbe721f8b3bb7ddf10897846890e8de59b483d7af2a0f22e3d23c25d49370f60803392a2604051908152f35b90506020853d6020116106e0575b816106ce60209383610c1e565b810103126100c7576020945190610664565b3d91506106c1565b94506020853d602011610715575b8161070360209383610c1e565b810103126100c7579351936020610635565b3d91506106f6565b60405162461bcd60e51b815260206004820152600a6024820152690736861726573203d20360b41b6044820152606490fd5b909150610765826107608184610c69565b610cae565b60011c906105cc565b90156105d6575060016105d6565b61079c6107956107a5926107908588610c56565b610c69565b9284610c56565b60015490610c69565b8082116107b457505b926105d8565b90506107ae565b6107c58282610c56565b6107d184600154610c56565b146105995760405162461bcd60e51b815260206004820152601060248201526f78202f207920213d206478202f20647960801b6044820152606490fd5b506001541515610594565b6108319060203d602011610393576103868183610c1e565b610586565b61084e9060203d602011610393576103868183610c1e565b610523565b346100c75760203660031901126100c7576040516370a0823160e01b81523060048281019190915235907f00000000000000000000000000000000000000000000000000000000000000006001600160a01b031690602081602481855afa90811561032c57600091610b00575b506040516370a0823160e01b81523060048201527f00000000000000000000000000000000000000000000000000000000000000006001600160a01b0316939092602084602481885afa93841561032c57600094610acc575b506109248383610c56565b936109406109356002548097610c69565b956107908386610c56565b9385151580610ac3575b15610a8557846109878761098d933360005260036020526040600020610971898254610c89565b905561097f88600254610c89565b600255610c89565b92610c89565b600091825560015560405163a9059cbb60e01b81523360048201526024810186905291602091839160449183915af1801561032c57610a68575b5060405163a9059cbb60e01b81523360048201526024810183905293602090859060449082906000905af193841561032c57604094610a4b575b5083519060018252602082015282848201528160608201527fadfbe721f8b3bb7ddf10897846890e8de59b483d7af2a0f22e3d23c25d49370f60803392a282519182526020820152f35b610a639060203d602011610393576103868183610c1e565b610a01565b610a809060203d602011610393576103868183610c1e565b6109c7565b60405162461bcd60e51b81526020600482015260166024820152750616d6f756e7430206f7220616d6f756e7431203d20360541b6044820152606490fd5b5084151561094a565b90936020823d602011610af8575b81610ae760209383610c1e565b810103126103645750519285610919565b3d9150610ada565b906020823d602011610b2a575b81610b1a60209383610c1e565b81010312610364575051836108c0565b3d9150610b0d565b346100c75760203660031901126100c7576001600160a01b03610b53610c08565b1660005260036020526020604060002054604051908152f35b346100c75760003660031901126100c7576020600154604051908152f35b346100c75760003660031901126100c7576020600054604051908152f35b346100c75760003660031901126100c7576020600254604051908152f35b346100c75760003660031901126100c7577f00000000000000000000000000000000000000000000000000000000000000006001600160a01b03168152602090f35b600435906001600160a01b03821682036100c757565b90601f8019910116810190811067ffffffffffffffff821117610c4057604052565b634e487b7160e01b600052604160045260246000fd5b8181029291811591840414171561039a57565b8115610c73570490565b634e487b7160e01b600052601260045260246000fd5b9190820391821161039a57565b908160209103126100c7575180151581036100c75790565b9190820180921161039a5756fea264697066735822122066f6c77d42ccdfb3d13e1cf4309fa38a02f8a7b9b3f030722ccaad5228d6801f64736f6c634300081c00330000000000000000000000007684650556491e2e6fa4c9b308217f2914fa70a90000000000000000000000008abda98a48b9cbdf39cd9566c3099ce05ad5a61e",
        "nonce": "0x7",
        "chainId": "0x138b"
      },
      "additionalContracts": [],
      "isFixedGasLimit": false
    },
    {
      "hash": "0x091613ebdceffa5ddc19e66f2693e84fab0f0a8c9a37f73ba07afad2ea3afaae",
      "transactionType": "CREATE",
      "contractName": "Pair",
      "contractAddress": "0x2e7a018136dd4d997f05328840d8cf8f12ecf278",
      "function": null,
      "arguments": [
        "0x8a76E8Beb8B0380EBAb2DED19BB087E9ADA94378",
        "0x8aBda98A48B9CBdf39cd9566c3099Ce05ad5a61e"
      ],
      "transaction": {
        "from": "0x14ffb23ad08f4ba3712ac6167dc69d6c54a09e6f",
        "gas": "0x1303388ab",
        "value": "0x0",
        "input": "0x60c0346100c257601f610de338819003918201601f19168301916001600160401b038311848410176100c75780849260409485528339810103126100c257610052602061004b836100dd565b92016100dd565b6001600160a01b039182166080521660a052604051610cf190816100f2823960805181818160e7015281816104e90152818161087f0152610bd9015260a0518181816098015281816101430152818161026c015281816103da015281816104730152818161054e01526108d60152f35b600080fd5b634e487b7160e01b600052604160045260246000fd5b51906001600160a01b03821682036100c25756fe608080604052600436101561001357600080fd5b60003560e01c9081630dfe168114610bc65750806318160ddd14610ba8578063443cb4bc14610b8a5780635a76f25e14610b6c57806370a0823114610b325780639c8f9f23146108535780639cd441da146104a4578063d004f0f7146100cc5763d21220a71461008257600080fd5b346100c75760003660031901126100c7576040517f00000000000000000000000000000000000000000000000000000000000000006001600160a01b03168152602090f35b600080fd5b346100c75760403660031901126100c7576100e5610c08565b7f0000000000000000000000000000000000000000000000000000000000000000906001600160a01b038083169160243591168083149081908115610471575b501561043c57811561040757600090156103cd5750600054926001547f00000000000000000000000000000000000000000000000000000000000000009490915b6040516323b872dd60e01b81523360048201523060248201526044810185905290602090829060649082906000906001600160a01b03165af1801561032c576103b0575b506103e583028381046103e50361039a576101dd926101d16103e86101d793048092610c56565b92610cae565b90610c69565b60405163a9059cbb60e01b81523360048201526024810182905293909290602090859060449082906000906001600160a01b03165af190811561032c5760249460209261036f575b506040516370a0823160e01b815230600482015294859182905afa92831561032c57600093610338575b506040516370a0823160e01b8152306004820152926020846024817f00000000000000000000000000000000000000000000000000000000000000006001600160a01b03165afa93841561032c576000946102f5575b509283602094600055816001556040519283528385840152604083015260608201527f49926bbebe8474393f434dfa4f78694c0923efa07d19f2284518bfabd06eb73760803392a2604051908152f35b6020813d602011610324575b8161030e60209383610c1e565b810103126103205751935060206102a5565b8480fd5b3d9150610301565b6040513d6000823e3d90fd5b90926020823d602011610367575b8161035360209383610c1e565b81010312610364575051918361024f565b80fd5b3d9150610346565b61038e90833d8511610393575b6103868183610c1e565b810190610c96565b610225565b503d61037c565b634e487b7160e01b600052601160045260246000fd5b6103c89060203d602011610393576103868183610c1e565b6101aa565b60015490549293508392907f00000000000000000000000000000000000000000000000000000000000000006001600160a01b0316610166565b60405162461bcd60e51b815260206004820152600d60248201526c0616d6f756e7420696e203d203609c1b6044820152606490fd5b60405162461bcd60e51b815260206004820152600d60248201526c34b73b30b634b2103a37b5b2b760991b6044820152606490fd5b7f00000000000000000000000000000000000000000000000000000000000000006001600160a01b031614905085610125565b346100c75760403660031901126100c7576040516323b872dd60e01b815233600480830191909152306024808401919091529035604483018190526001600160a01b037f000000000000000000000000000000000000000000000000000000000000000016929135916020816064816000885af1801561032c57610836575b506040516323b872dd60e01b8152336004820152306024820152604481018390526001600160a01b037f00000000000000000000000000000000000000000000000000000000000000001692906020816064816000885af1801561032c57610819575b50600054801580159061080e575b6107bb575b600254908161077c5750506105ae8183610c56565b6000600382111561076e5750808060011c6001810180911161039a57905b82821061074f5750505b925b831561071d576020602495336000526003825260406000206105fb878254610cae565b905561060986600254610cae565b6002556040516370a0823160e01b815230600482015296879182905afa94851561032c576000956106e8575b50936020602495604051968780926370a0823160e01b82523060048301525afa90811561032c576000916106b3575b6020955060005560015560405191600083528385840152604083015260608201527fadfbe721f8b3bb7ddf10897846890e8de59b483d7af2a0f22e3d23c25d49370f60803392a2604051908152f35b90506020853d6020116106e0575b816106ce60209383610c1e565b810103126100c7576020945190610664565b3d91506106c1565b94506020853d602011610715575b8161070360209383610c1e565b810103126100c7579351936020610635565b3d91506106f6565b60405162461bcd60e51b815260206004820152600a6024820152690736861726573203d20360b41b6044820152606490fd5b909150610765826107608184610c69565b610cae565b60011c906105cc565b90156105d6575060016105d6565b61079c6107956107a5926107908588610c56565b610c69565b9284610c56565b60015490610c69565b8082116107b457505b926105d8565b90506107ae565b6107c58282610c56565b6107d184600154610c56565b146105995760405162461bcd60e51b815260206004820152601060248201526f78202f207920213d206478202f20647960801b6044820152606490fd5b506001541515610594565b6108319060203d602011610393576103868183610c1e565b610586565b61084e9060203d602011610393576103868183610c1e565b610523565b346100c75760203660031901126100c7576040516370a0823160e01b81523060048281019190915235907f00000000000000000000000000000000000000000000000000000000000000006001600160a01b031690602081602481855afa90811561032c57600091610b00575b506040516370a0823160e01b81523060048201527f00000000000000000000000000000000000000000000000000000000000000006001600160a01b0316939092602084602481885afa93841561032c57600094610acc575b506109248383610c56565b936109406109356002548097610c69565b956107908386610c56565b9385151580610ac3575b15610a8557846109878761098d933360005260036020526040600020610971898254610c89565b905561097f88600254610c89565b600255610c89565b92610c89565b600091825560015560405163a9059cbb60e01b81523360048201526024810186905291602091839160449183915af1801561032c57610a68575b5060405163a9059cbb60e01b81523360048201526024810183905293602090859060449082906000905af193841561032c57604094610a4b575b5083519060018252602082015282848201528160608201527fadfbe721f8b3bb7ddf10897846890e8de59b483d7af2a0f22e3d23c25d49370f60803392a282519182526020820152f35b610a639060203d602011610393576103868183610c1e565b610a01565b610a809060203d602011610393576103868183610c1e565b6109c7565b60405162461bcd60e51b81526020600482015260166024820152750616d6f756e7430206f7220616d6f756e7431203d20360541b6044820152606490fd5b5084151561094a565b90936020823d602011610af8575b81610ae760209383610c1e565b810103126103645750519285610919565b3d9150610ada565b906020823d602011610b2a575b81610b1a60209383610c1e565b81010312610364575051836108c0565b3d9150610b0d565b346100c75760203660031901126100c7576001600160a01b03610b53610c08565b1660005260036020526020604060002054604051908152f35b346100c75760003660031901126100c7576020600154604051908152f35b346100c75760003660031901126100c7576020600054604051908152f35b346100c75760003660031901126100c7576020600254604051908152f35b346100c75760003660031901126100c7577f00000000000000000000000000000000000000000000000000000000000000006001600160a01b03168152602090f35b600435906001600160a01b03821682036100c757565b90601f8019910116810190811067ffffffffffffffff821117610c4057604052565b634e487b7160e01b600052604160045260246000fd5b8181029291811591840414171561039a57565b8115610c73570490565b634e487b7160e01b600052601260045260246000fd5b9190820391821161039a57565b908160209103126100c7575180151581036100c75790565b9190820180921161039a5756fea264697066735822122066f6c77d42ccdfb3d13e1cf4309fa38a02f8a7b9b3f030722ccaad5228d6801f64736f6c634300081c00330000000000000000000000008a76e8beb8b0380ebab2ded19bb087e9ada943780000000000000000000000008abda98a48b9cbdf39cd9566c3099ce05ad5a61e",
        "nonce": "0x8",
        "chainId": "0x138b"
      },
      "additionalContracts": [],
      "isFixedGasLimit": false
    },
    {
      "hash": "0x0373bbbf05a7ae2c0b172e0614b0e7c7bb00c6d765a93c92e93e4a8ed630fdf8",
      "transactionType": "CREATE",
      "contractName": "Router",
      "contractAddress": "0x0b68ee78502411810b9503ab2f943b7bd0c08d5a",
      "function": null,
      "arguments": null,
      "transaction": {
        "from": "0x14ffb23ad08f4ba3712ac6167dc69d6c54a09e6f",
        "gas": "0x9ffdddaf",
        "value": "0x0",
        "input": "0x6080806040523460155761065a908161001b8239f35b600080fdfe608080604052600436101561001357600080fd5b60003560e01c90816355776b771461027a57508063a201ccf6146101db5763df791e501461004057600080fd5b3461017a57606036600319011261017a5761005961059f565b6024356001600160a01b0381169182820361017a576040516323b872dd60e01b81523360048201523060248201526044803590820181905291906020816064816000895af18015610187576101be575b5060405163095ea7b360e01b81526001600160a01b03821660048201526024810183905293602090859060449082906000905af19283156101875761012994602094610193575b5060405163d004f0f760e01b81526001600160a01b03909116600482015260248101929092529092839190829060009082906044820190565b03926001600160a01b03165af180156101875760009061014f575b602090604051908152f35b506020813d60201161017f575b81610169602093836105b5565b8101031261017a5760209051610144565b600080fd5b3d915061015c565b6040513d6000823e3d90fd5b6101b290853d87116101b7575b6101aa81836105b5565b81019061060c565b6100f0565b503d6101a0565b6101d69060203d6020116101b7576101aa81836105b5565b6100a9565b3461017a57604036600319011261017a57600060406101f861059f565b8151639c8f9f2360e01b8152602480356004830152909384928391906001600160a01b03165af1801561018757600090600090610240575b6040809350519182526020820152f35b50506040813d604011610272575b8161025b604093836105b5565b8101031261017a5780602060409251910151610230565b3d915061024e565b3461017a57606036600319011261017a5761029361059f565b630dfe168160e01b82526001600160a01b038116916044359060243590602081600481885afa90811561018757600091610580575b506040516323b872dd60e01b81523360048201523060248201526044810183905290602090829060649082906000906001600160a01b03165af1801561018757610563575b50604051630dfe168160e01b8152602081600481885afa90811561018757600091610544575b5060405163095ea7b360e01b81526001600160a01b03858116600483015260248201849052909160209183916044918391600091165af1801561018757610527575b5060405163d21220a760e01b8152602081600481885afa90811561018757600091610508575b506040516323b872dd60e01b81523360048201523060248201526044810184905290602090829060649082906000906001600160a01b03165af18015610187576104eb575b5060405163d21220a760e01b815292602084600481885afa938415610187576104499460209285926000926104bc575b5060405163095ea7b360e01b81526001600160a01b03909116600482015260248101929092529094859190829060009082906044820190565b03926001600160a01b03165af1908115610187576020936044926104a1575b5060006040519586948593634e6a20ed60e11b8552600485015260248401525af180156101875760009061014f57602090604051908152f35b6104b790853d87116101b7576101aa81836105b5565b610468565b6104dd919250843d86116104e4575b6104d581836105b5565b8101906105ed565b9088610410565b503d6104cb565b6105039060203d6020116101b7576101aa81836105b5565b6103e0565b610521915060203d6020116104e4576104d581836105b5565b8561039b565b61053f9060203d6020116101b7576101aa81836105b5565b610375565b61055d915060203d6020116104e4576104d581836105b5565b85610333565b61057b9060203d6020116101b7576101aa81836105b5565b61030d565b610599915060203d6020116104e4576104d581836105b5565b856102c8565b600435906001600160a01b038216820361017a57565b90601f8019910116810190811067ffffffffffffffff8211176105d757604052565b634e487b7160e01b600052604160045260246000fd5b9081602091031261017a57516001600160a01b038116810361017a5790565b9081602091031261017a5751801515810361017a579056fea2646970667358221220f05cfa8087bdb9e06c58de659fd206c23d302a79297a53d736e567de3830f7f464736f6c634300081c0033",
        "nonce": "0x9",
        "chainId": "0x138b"
      },
      "additionalContracts": [],
      "isFixedGasLimit": false
    },
    {
      "hash": "0x3f3d2211551decaa4a39c4d8edc1849d1c3270026cbbe29fa03fb578abd945e9",
      "transactionType": "CALL",
      "contractName": "Tkn",
      "contractAddress": "0x47aac60014410ce6de3a315dfe2ee2a7698c897f",
      "function": "approve(address,uint256)",
      "arguments": [
        "0x0B68EE78502411810b9503ab2F943B7Bd0c08d5A",
        "115792089237316195423570985008687907853269984665640564039457584007913129639935"
      ],
      "transaction": {
        "from": "0x14ffb23ad08f4ba3712ac6167dc69d6c54a09e6f",
        "to": "0x47aac60014410ce6de3a315dfe2ee2a7698c897f",
        "gas": "0x8bb7ae0",
        "value": "0x0",
        "input": "0x095ea7b30000000000000000000000000b68ee78502411810b9503ab2f943b7bd0c08d5affffffffffffffffffffffffffffffffffffffffffffffffffffffffffffffff",
        "nonce": "0xa",
        "chainId": "0x138b"
      },
      "additionalContracts": [],
      "isFixedGasLimit": false
    },
    {
      "hash": "0x6288506df9f6cecdaab38d2600119b659ce0867cdce87b523a1f49ef0a8efe7f",
      "transactionType": "CALL",
      "contractName": "Tkn",
      "contractAddress": "0x85cb077de6640eb393dbc0f275f08b2bf2008cb3",
      "function": "approve(address,uint256)",
      "arguments": [
        "0x0B68EE78502411810b9503ab2F943B7Bd0c08d5A",
        "115792089237316195423570985008687907853269984665640564039457584007913129639935"
      ],
      "transaction": {
        "from": "0x14ffb23ad08f4ba3712ac6167dc69d6c54a09e6f",
        "to": "0x85cb077de6640eb393dbc0f275f08b2bf2008cb3",
        "gas": "0x8bb7ae0",
        "value": "0x0",
        "input": "0x095ea7b30000000000000000000000000b68ee78502411810b9503ab2f943b7bd0c08d5affffffffffffffffffffffffffffffffffffffffffffffffffffffffffffffff",
        "nonce": "0xb",
        "chainId": "0x138b"
      },
      "additionalContracts": [],
      "isFixedGasLimit": false
    },
    {
      "hash": "0x9a4301173436563a23845bb0fd3069a60ea45a771b1a42d5b6499c0aed820bc2",
      "transactionType": "CALL",
      "contractName": "Tkn",
      "contractAddress": "0x7684650556491e2e6fa4c9b308217f2914fa70a9",
      "function": "approve(address,uint256)",
      "arguments": [
        "0x0B68EE78502411810b9503ab2F943B7Bd0c08d5A",
        "115792089237316195423570985008687907853269984665640564039457584007913129639935"
      ],
      "transaction": {
        "from": "0x14ffb23ad08f4ba3712ac6167dc69d6c54a09e6f",
        "to": "0x7684650556491e2e6fa4c9b308217f2914fa70a9",
        "gas": "0x8bb7ae0",
        "value": "0x0",
        "input": "0x095ea7b30000000000000000000000000b68ee78502411810b9503ab2f943b7bd0c08d5affffffffffffffffffffffffffffffffffffffffffffffffffffffffffffffff",
        "nonce": "0xc",
        "chainId": "0x138b"
      },
      "additionalContracts": [],
      "isFixedGasLimit": false
    },
    {
      "hash": "0x76e0a7942997f9ab36eccc692959cdfe2a1c4807055501d758c2f30f61744ec3",
      "transactionType": "CALL",
      "contractName": "Tkn",
      "contractAddress": "0x8a76e8beb8b0380ebab2ded19bb087e9ada94378",
      "function": "approve(address,uint256)",
      "arguments": [
        "0x0B68EE78502411810b9503ab2F943B7Bd0c08d5A",
        "115792089237316195423570985008687907853269984665640564039457584007913129639935"
      ],
      "transaction": {
        "from": "0x14ffb23ad08f4ba3712ac6167dc69d6c54a09e6f",
        "to": "0x8a76e8beb8b0380ebab2ded19bb087e9ada94378",
        "gas": "0x8bb7ae0",
        "value": "0x0",
        "input": "0x095ea7b30000000000000000000000000b68ee78502411810b9503ab2f943b7bd0c08d5affffffffffffffffffffffffffffffffffffffffffffffffffffffffffffffff",
        "nonce": "0xd",
        "chainId": "0x138b"
      },
      "additionalContracts": [],
      "isFixedGasLimit": false
    },
    {
      "hash": "0x1f8e9f11e00fe660e028216efccdbab32c14ea388e7d2879dd64a65ed05a411b",
      "transactionType": "CALL",
      "contractName": "Tkn",
      "contractAddress": "0x8abda98a48b9cbdf39cd9566c3099ce05ad5a61e",
      "function": "approve(address,uint256)",
      "arguments": [
        "0x0B68EE78502411810b9503ab2F943B7Bd0c08d5A",
        "115792089237316195423570985008687907853269984665640564039457584007913129639935"
      ],
      "transaction": {
        "from": "0x14ffb23ad08f4ba3712ac6167dc69d6c54a09e6f",
        "to": "0x8abda98a48b9cbdf39cd9566c3099ce05ad5a61e",
        "gas": "0x8bb7ae0",
        "value": "0x0",
        "input": "0x095ea7b30000000000000000000000000b68ee78502411810b9503ab2f943b7bd0c08d5affffffffffffffffffffffffffffffffffffffffffffffffffffffffffffffff",
        "nonce": "0xe",
        "chainId": "0x138b"
      },
      "additionalContracts": [],
      "isFixedGasLimit": false
    },
    {
      "hash": "0x062f02a7206953bf5437a0f65ac81d9931706c85ac69f7eacb460bf8497db699",
      "transactionType": "CALL",
      "contractName": "Router",
      "contractAddress": "0x0b68ee78502411810b9503ab2f943b7bd0c08d5a",
      "function": "addLiquidity(address,uint256,uint256)",
      "arguments": [
        "0x610233b7c78EBB66B12019AAC37449f50e37dbC8",
        "1000000000000",
        "125000000000000000000000"
      ],
      "transaction": {
        "from": "0x14ffb23ad08f4ba3712ac6167dc69d6c54a09e6f",
        "to": "0x0b68ee78502411810b9503ab2f943b7bd0c08d5a",
        "gas": "0x8af2159",
        "value": "0x0",
        "input": "0x55776b77000000000000000000000000610233b7c78ebb66b12019aac37449f50e37dbc8000000000000000000000000000000000000000000000000000000e8d4a51000000000000000000000000000000000000000000000001a784379d99db4200000",
        "nonce": "0xf",
        "chainId": "0x138b"
      },
      "additionalContracts": [],
      "isFixedGasLimit": false
    },
    {
      "hash": "0x3f7dbf968a49f9503a5f4e85a6332e8634d30772ca0846ed75b1bb95a8b9de54",
      "transactionType": "CALL",
      "contractName": "Router",
      "contractAddress": "0x0b68ee78502411810b9503ab2f943b7bd0c08d5a",
      "function": "addLiquidity(address,uint256,uint256)",
      "arguments": [
        "0x3Aaa24ADE1BC2B98bb58bd6111E02Dd7BD8702E1",
        "1000000000000",
        "109375000000000000000000"
      ],
      "transaction": {
        "from": "0x14ffb23ad08f4ba3712ac6167dc69d6c54a09e6f",
        "to": "0x0b68ee78502411810b9503ab2f943b7bd0c08d5a",
        "gas": "0x8af2159",
        "value": "0x0",
        "input": "0x55776b770000000000000000000000003aaa24ade1bc2b98bb58bd6111e02dd7bd8702e1000000000000000000000000000000000000000000000000000000e8d4a510000000000000000000000000000000000000000000000017293b0a9e69fd9c0000",
        "nonce": "0x10",
        "chainId": "0x138b"
      },
      "additionalContracts": [],
      "isFixedGasLimit": false
    },
    {
      "hash": "0xa9dcde0f9069d9cde9aabd620df1c2018adc267eb274c43b1fe20d5b8b983a54",
      "transactionType": "CALL",
      "contractName": "Router",
      "contractAddress": "0x0b68ee78502411810b9503ab2f943b7bd0c08d5a",
      "function": "addLiquidity(address,uint256,uint256)",
      "arguments": [
        "0x943FE1262ddAdcf725786Fd7b845199C3eECc562",
        "1000000000000",
        "95703125000000000000000"
      ],
      "transaction": {
        "from": "0x14ffb23ad08f4ba3712ac6167dc69d6c54a09e6f",
        "to": "0x0b68ee78502411810b9503ab2f943b7bd0c08d5a",
        "gas": "0x8b07755",
        "value": "0x0",
        "input": "0x55776b77000000000000000000000000943fe1262ddadcf725786fd7b845199c3eecc562000000000000000000000000000000000000000000000000000000e8d4a5100000000000000000000000000000000000000000000000144413a94a9cbde88000",
        "nonce": "0x11",
        "chainId": "0x138b"
      },
      "additionalContracts": [],
      "isFixedGasLimit": false
    },
    {
      "hash": "0xf4277ca871f8e8961402b597fb5fa67f773a9eaf770ede4950631adf30522230",
      "transactionType": "CALL",
      "contractName": "Router",
      "contractAddress": "0x0b68ee78502411810b9503ab2f943b7bd0c08d5a",
      "function": "addLiquidity(address,uint256,uint256)",
      "arguments": [
        "0x2e7a018136Dd4D997F05328840d8cf8F12ECF278",
        "1000000000000",
        "83740234375000000000000"
      ],
      "transaction": {
        "from": "0x14ffb23ad08f4ba3712ac6167dc69d6c54a09e6f",
        "to": "0x0b68ee78502411810b9503ab2f943b7bd0c08d5a",
        "gas": "0x8b07755",
        "value": "0x0",
        "input": "0x55776b770000000000000000000000002e7a018136dd4d997f05328840d8cf8f12ecf278000000000000000000000000000000000000000000000000000000e8d4a510000000000000000000000000000000000000000000000011bb91342149262b7000",
        "nonce": "0x12",
        "chainId": "0x138b"
      },
      "additionalContracts": [],
      "isFixedGasLimit": false
    }
  ],
  "receipts": [
    {
      "status": "0x1",
      "cumulativeGasUsed": "0xbb6cb528",
      "logs": [
        {
          "address": "0x47aac60014410ce6de3a315dfe2ee2a7698c897f",
          "topics": [
            "0xddf252ad1be2c89b69c2b068fc378daa952ba7f163c4a11628f55a4df523b3ef",
            "0x0000000000000000000000000000000000000000000000000000000000000000",
            "0x00000000000000000000000014ffb23ad08f4ba3712ac6167dc69d6c54a09e6f"
          ],
          "data": "0x000000000000000000000000000000000000000000000000000000e8d4a51000",
          "blockHash": "0xe3391e278ea074122545597353b9ac5c4fba03eea57cf6e5d82b4110be462000",
          "blockNumber": "0xe64c3f",
          "transactionHash": "0xf48bfa4a4bbbadce4b7412ef1712fdd8aed7d718b37da61334eabde0a27d9e43",
          "transactionIndex": "0x2",
          "logIndex": "0x1",
          "removed": false
        }
      ],
      "logsBloom": "0x00000000000000000000000000000000000000000000000000000000000000000000000000000000000100000000000000000000000000010000000000000000000000000000000000000008000000000000000000000000000000000000000000010000060000000000000000000800000000000000008000000010000000000000000000000000000000000000000000000000000000000000000000000000000000000000000000000000000000000000000100000000000000000000000000000002000000000000000000000000000000000000000000000000000020000000000000000000000000000000000000000000000000000000000000000000",
      "type": "0x2",
      "transactionHash": "0xf48bfa4a4bbbadce4b7412ef1712fdd8aed7d718b37da61334eabde0a27d9e43",
      "transactionIndex": "0x2",
      "blockHash": "0xe3391e278ea074122545597353b9ac5c4fba03eea57cf6e5d82b4110be462000",
      "blockNumber": "0xe64c3f",
      "gasUsed": "0xaf115c23",
      "effectiveGasPrice": "0x14fb180",
      "from": "0x14ffb23ad08f4ba3712ac6167dc69d6c54a09e6f",
      "to": null,
      "contractAddress": "0x47aac60014410ce6de3a315dfe2ee2a7698c897f",
      "l1Fee": "0x1e8d25305c01d",
      "l1FeeScalar": "0.01",
      "l1GasPrice": "0xcf88cb2",
      "l1GasUsed": "0xe490",
      "tokenRatio": "0x107d"
    },
    {
      "status": "0x1",
      "cumulativeGasUsed": "0xb45afb8a",
      "logs": [
        {
          "address": "0x85cb077de6640eb393dbc0f275f08b2bf2008cb3",
          "topics": [
            "0xddf252ad1be2c89b69c2b068fc378daa952ba7f163c4a11628f55a4df523b3ef",
            "0x0000000000000000000000000000000000000000000000000000000000000000",
            "0x00000000000000000000000014ffb23ad08f4ba3712ac6167dc69d6c54a09e6f"
          ],
          "data": "0x000000000000000000000000000000000000000000000000000000e8d4a51000",
          "blockHash": "0x93765aa3ad7a6cc25125d10e95f3d05e56b7eee8cca5efedd31d7723c4492397",
          "blockNumber": "0xe64c42",
          "transactionHash": "0xb2ff70aeb7f35e022518e68064fd7c155bed18d239bc5aab84449be032cd0f9f",
          "transactionIndex": "0x2",
          "logIndex": "0x0",
          "removed": false
        }
      ],
      "logsBloom": "0x00000000000000000000000000000000000000200000000000000000000000000000000000000000000100000000000000000000000000000000000000000000000000000000000000000008000000000000000000000000000000000000000000010000020000000000000000000800000000000000000000000010000000000000000000000000000000000000000000000000000000000000000000000000000000000000100000000000000000000000000100000000000000000000000020000002000000000000000000000000000000000000000000000000000020000000000000000000000000000000000000000000000000000000000000000000",
      "type": "0x2",
      "transactionHash": "0xb2ff70aeb7f35e022518e68064fd7c155bed18d239bc5aab84449be032cd0f9f",
      "transactionIndex": "0x2",
      "blockHash": "0x93765aa3ad7a6cc25125d10e95f3d05e56b7eee8cca5efedd31d7723c4492397",
      "blockNumber": "0xe64c42",
      "gasUsed": "0xaf115cdb",
      "effectiveGasPrice": "0x14fb180",
      "from": "0x14ffb23ad08f4ba3712ac6167dc69d6c54a09e6f",
      "to": null,
      "contractAddress": "0x85cb077de6640eb393dbc0f275f08b2bf2008cb3",
      "l1Fee": "0x1e8d25305c01d",
      "l1FeeScalar": "0.01",
      "l1GasPrice": "0xcf88cb2",
      "l1GasUsed": "0xe490",
      "tokenRatio": "0x107d"
    },
    {
      "status": "0x1",
      "cumulativeGasUsed": "0xaf0acda3",
      "logs": [
        {
          "address": "0x7684650556491e2e6fa4c9b308217f2914fa70a9",
          "topics": [
            "0xddf252ad1be2c89b69c2b068fc378daa952ba7f163c4a11628f55a4df523b3ef",
            "0x0000000000000000000000000000000000000000000000000000000000000000",
            "0x00000000000000000000000014ffb23ad08f4ba3712ac6167dc69d6c54a09e6f"
          ],
          "data": "0x000000000000000000000000000000000000000000000000000000e8d4a51000",
          "blockHash": "0xb00bfc482d1b6074cec82334261bbd102892614c4ed0f234d409a28f6b682b19",
          "blockNumber": "0xe64c45",
          "transactionHash": "0x9ae31f3e8b8d2ef947491f94f36ef8f4e5da0e2f8ae0f052311882407d063a16",
          "transactionIndex": "0x1",
          "logIndex": "0x0",
          "removed": false
        }
      ],
      "logsBloom": "0x00000000000000000000000000000004000000000000000000000000000000000000000000000000000100000000000000000000000000000000000000000000000000000000000000000008000000000000000000000000000000000000000000010000020000000000000000000800000000000000000000000010000000000000000000000000000000000000000000000000000000000000000000000000000000000000000000000000000000002000000100000000000000000000000000000002000000000000000000000000000000000000000000000000000020000000000000000000100000000000000000000000000000000000000000000000",
      "type": "0x2",
      "transactionHash": "0x9ae31f3e8b8d2ef947491f94f36ef8f4e5da0e2f8ae0f052311882407d063a16",
      "transactionIndex": "0x1",
      "blockHash": "0xb00bfc482d1b6074cec82334261bbd102892614c4ed0f234d409a28f6b682b19",
      "blockNumber": "0xe64c45",
      "gasUsed": "0xaf09d3ba",
      "effectiveGasPrice": "0x14fb180",
      "from": "0x14ffb23ad08f4ba3712ac6167dc69d6c54a09e6f",
      "to": null,
      "contractAddress": "0x7684650556491e2e6fa4c9b308217f2914fa70a9",
      "l1Fee": "0x1def366b99d16",
      "l1FeeScalar": "0.01",
      "l1GasPrice": "0xcb57f63",
      "l1GasUsed": "0xe490",
      "tokenRatio": "0x107d"
    },
    {
      "status": "0x1",
      "cumulativeGasUsed": "0xb4551ee1",
      "logs": [
        {
          "address": "0x8a76e8beb8b0380ebab2ded19bb087e9ada94378",
          "topics": [
            "0xddf252ad1be2c89b69c2b068fc378daa952ba7f163c4a11628f55a4df523b3ef",
            "0x0000000000000000000000000000000000000000000000000000000000000000",
            "0x00000000000000000000000014ffb23ad08f4ba3712ac6167dc69d6c54a09e6f"
          ],
          "data": "0x000000000000000000000000000000000000000000000000000000e8d4a51000",
          "blockHash": "0xf80c74c97f914d4e2f0365dacd63d7b6666256bd7f1cc9c836bb0397c98450aa",
          "blockNumber": "0xe64c47",
          "transactionHash": "0xbdd6ad6c007e30920c6a5449d30ef09a0389dd9eab63eac2d63b4cc634d80166",
          "transactionIndex": "0x2",
          "logIndex": "0x0",
          "removed": false
        }
      ],
      "logsBloom": "0x00000000000000000000000000000000000000000000000000000000000000000000001000000000000100000000000000000000000000000000000000000000080000000000000000000008000000000000000000000000000000000000000000010000020000000000000000000800000000000000000000000010000000000000000000000000000000000000000000000000000000000000000000000000000000040000000000000000000000000000000100000000000000000000000000000002000000000000000000000000000000000000000000000000000020000000000000000000000000000000000000000000000000000000000000000000",
      "type": "0x2",
      "transactionHash": "0xbdd6ad6c007e30920c6a5449d30ef09a0389dd9eab63eac2d63b4cc634d80166",
      "transactionIndex": "0x2",
      "blockHash": "0xf80c74c97f914d4e2f0365dacd63d7b6666256bd7f1cc9c836bb0397c98450aa",
      "blockNumber": "0xe64c47",
      "gasUsed": "0xaf0b8323",
      "effectiveGasPrice": "0x14fb180",
      "from": "0x14ffb23ad08f4ba3712ac6167dc69d6c54a09e6f",
      "to": null,
      "contractAddress": "0x8a76e8beb8b0380ebab2ded19bb087e9ada94378",
      "l1Fee": "0x1df25b16cd3a6",
      "l1FeeScalar": "0.01",
      "l1GasPrice": "0xcb57f63",
      "l1GasUsed": "0xe4a8",
      "tokenRatio": "0x107d"
    },
    {
      "status": "0x1",
      "cumulativeGasUsed": "0xaf0d1c66",
      "logs": [
        {
          "address": "0x8abda98a48b9cbdf39cd9566c3099ce05ad5a61e",
          "topics": [
            "0xddf252ad1be2c89b69c2b068fc378daa952ba7f163c4a11628f55a4df523b3ef",
            "0x0000000000000000000000000000000000000000000000000000000000000000",
            "0x00000000000000000000000014ffb23ad08f4ba3712ac6167dc69d6c54a09e6f"
          ],
          "data": "0x00000000000000000000000000000000000000000000d3c21bcecceda1000000",
          "blockHash": "0x930a9f38447b414f1c7e36e3b94fd82428f02bed401165ea5657a71469667d72",
          "blockNumber": "0xe64c49",
          "transactionHash": "0x8fb38030e78144fd39b4c75fcb1fc3733d8943d33e4ecefefbe37a814151e915",
          "transactionIndex": "0x1",
          "logIndex": "0x0",
          "removed": false
        }
      ],
      "logsBloom": "0x00000000000000000000000000000000000000000000000000000000000000000000000000000000000100000000000000000000000002000000000000000000000000000000000000000008000000000000000000000000000000000000000000010000020000000000000000000800000000000000000000000010000000000000000000000000000000040000000000000000000000000000000000000000000000000000000000000000000000000000000100000000000000000000000000000002000000000000000000000000000000000000000000008000000020000000000000000000000000000000000000000000000000000000000000000000",
      "type": "0x2",
      "transactionHash": "0x8fb38030e78144fd39b4c75fcb1fc3733d8943d33e4ecefefbe37a814151e915",
      "transactionIndex": "0x1",
      "blockHash": "0x930a9f38447b414f1c7e36e3b94fd82428f02bed401165ea5657a71469667d72",
      "blockNumber": "0xe64c49",
      "gasUsed": "0xaf0c6549",
      "effectiveGasPrice": "0x14fb180",
      "from": "0x14ffb23ad08f4ba3712ac6167dc69d6c54a09e6f",
      "to": null,
      "contractAddress": "0x8abda98a48b9cbdf39cd9566c3099ce05ad5a61e",
      "l1Fee": "0x1df3ed6c66eee",
      "l1FeeScalar": "0.01",
      "l1GasPrice": "0xcb57f63",
      "l1GasUsed": "0xe4b4",
      "tokenRatio": "0x107d"
    },
    {
      "status": "0x1",
      "cumulativeGasUsed": "0xc8128089",
      "logs": [],
      "logsBloom": "0x00000000000000000000000000000000000000000000000000000000000000000000000000000000000000000000000000000000000000000000000000000000000000000000000000000000000000000000000000000000000000000000000000000000000000000000000000000000000000000000000000000000000000000000000000000000000000000000000000000000000000000000000000000000000000000000000000000000000000000000000000000000000000000000000000000000000000000000000000000000000000000000000000000000000000000000000000000000000000000000000000000000000000000000000000000000",
      "type": "0x2",
      "transactionHash": "0x9450504350d58d4b063c44e85f3d99b6bf6c36580e6b8e3216828fe5df975223",
      "transactionIndex": "0x2",
      "blockHash": "0x8326bcb1dbcdb6f80af561e92ea72c8a2c01405386d65452b3f0936d584aa344",
      "blockNumber": "0xe64c4b",
      "gasUsed": "0xc2c8b27c",
      "effectiveGasPrice": "0x14fb180",
      "from": "0x14ffb23ad08f4ba3712ac6167dc69d6c54a09e6f",
      "to": null,
      "contractAddress": "0x610233b7c78ebb66b12019aac37449f50e37dbc8",
      "l1Fee": "0x1a73d90a858b0",
      "l1FeeScalar": "0.01",
      "l1GasPrice": "0xc25c20e",
      "l1GasUsed": "0xd350",
      "tokenRatio": "0x107d"
    },
    {
      "status": "0x1",
      "cumulativeGasUsed": "0xc2c96974",
      "logs": [],
      "logsBloom": "0x00000000000000000000000000000000000000000000000000000000000000000000000000000000000000000000000000000000000000000000000000000000000000000000000000000000000000000000000000000000000000000000000000000000000000000000000000000000000000000000000000000000000000000000000000000000000000000000000000000000000000000000000000000000000000000000000000000000000000000000000000000000000000000000000000000000000000000000000000000000000000000000000000000000000000000000000000000000000000000000000000000000000000000000000000000000",
      "type": "0x2",
      "transactionHash": "0x6be13f6e1394573065687b4193471eb605a2f6c40fff35d93f5623fb3de18aa8",
      "transactionIndex": "0x1",
      "blockHash": "0xe6746404aec02fa936a12332100ffae3babb2c8ee496f2f299018148a804b6cd",
      "blockNumber": "0xe64c4d",
      "gasUsed": "0xc2c8b257",
      "effectiveGasPrice": "0x14fb180",
      "from": "0x14ffb23ad08f4ba3712ac6167dc69d6c54a09e6f",
      "to": null,
      "contractAddress": "0x3aaa24ade1bc2b98bb58bd6111e02dd7bd8702e1",
      "l1Fee": "0x1a73d90a858b0",
      "l1FeeScalar": "0.01",
      "l1GasPrice": "0xc25c20e",
      "l1GasUsed": "0xd350",
      "tokenRatio": "0x107d"
    },
    {
      "status": "0x1",
      "cumulativeGasUsed": "0xc8131ca1",
      "logs": [],
      "logsBloom": "0x00000000000000000000000000000000000000000000000000000000000000000000000000000000000000000000000000000000000000000000000000000000000000000000000000000000000000000000000000000000000000000000000000000000000000000000000000000000000000000000000000000000000000000000000000000000000000000000000000000000000000000000000000000000000000000000000000000000000000000000000000000000000000000000000000000000000000000000000000000000000000000000000000000000000000000000000000000000000000000000000000000000000000000000000000000000",
      "type": "0x2",
      "transactionHash": "0x403ce2861b9aa808cbe627b1adf7a3fbde96e7e3204000eab7fb7787fbf44d4b",
      "transactionIndex": "0x2",
      "blockHash": "0x009f93cee641d7c7acb65489b74a161d64f8c408e29f33f17e99e99c19c13343",
      "blockNumber": "0xe64c4f",
      "gasUsed": "0xc2c9828b",
      "effectiveGasPrice": "0x14fb180",
      "from": "0x14ffb23ad08f4ba3712ac6167dc69d6c54a09e6f",
      "to": null,
      "contractAddress": "0x943fe1262ddadcf725786fd7b845199c3eecc562",
      "l1Fee": "0x1a755999afb59",
      "l1FeeScalar": "0.01",
      "l1GasPrice": "0xc25c20e",
      "l1GasUsed": "0xd35c",
      "tokenRatio": "0x107d"
    },
    {
      "status": "0x1",
      "cumulativeGasUsed": "0xf13214bf",
      "logs": [],
      "logsBloom": "0x00000000000000000000000000000000000000000000000000000000000000000000000000000000000000000000000000000000000000000000000000000000000000000000000000000000000000000000000000000000000000000000000000000000000000000000000000000000000000000000000000000000000000000000000000000000000000000000000000000000000000000000000000000000000000000000000000000000000000000000000000000000000000000000000000000000000000000000000000000000000000000000000000000000000000000000000000000000000000000000000000000000000000000000000000000000",
      "type": "0x2",
      "transactionHash": "0x091613ebdceffa5ddc19e66f2693e84fab0f0a8c9a37f73ba07afad2ea3afaae",
      "transactionIndex": "0x3",
      "blockHash": "0xfadaaaa5a87775c32ebf21f8d0180e503e695d9fac76ac22ac7f4f675c7f4275",
      "blockNumber": "0xe64c51",
      "gasUsed": "0xc2d79d7a",
      "effectiveGasPrice": "0x14fb180",
      "from": "0x14ffb23ad08f4ba3712ac6167dc69d6c54a09e6f",
      "to": null,
      "contractAddress": "0x2e7a018136dd4d997f05328840d8cf8f12ecf278",
      "l1Fee": "0x1b9c90cf41557",
      "l1FeeScalar": "0.01",
      "l1GasPrice": "0xcad4be5",
      "l1GasUsed": "0xd35c",
      "tokenRatio": "0x107d"
    },
    {
      "status": "0x1",
      "cumulativeGasUsed": "0x667a1f3a",
      "logs": [],
      "logsBloom": "0x00000000000000000000000000000000000000000000000000000000000000000000000000000000000000000000000000000000000000000000000000000000000000000000000000000000000000000000000000000000000000000000000000000000000000000000000000000000000000000000000000000000000000000000000000000000000000000000000000000000000000000000000000000000000000000000000000000000000000000000000000000000000000000000000000000000000000000000000000000000000000000000000000000000000000000000000000000000000000000000000000000000000000000000000000000000",
      "type": "0x2",
      "transactionHash": "0x0373bbbf05a7ae2c0b172e0614b0e7c7bb00c6d765a93c92e93e4a8ed630fdf8",
      "transactionIndex": "0x1",
      "blockHash": "0xb17735dabd96625bccb75e7c0393a8a492ffffa04fe84aa734af6426f25ad2b2",
      "blockNumber": "0xe64c53",
      "gasUsed": "0x6679681d",
      "effectiveGasPrice": "0x14fb180",
      "from": "0x14ffb23ad08f4ba3712ac6167dc69d6c54a09e6f",
      "to": null,
      "contractAddress": "0x0b68ee78502411810b9503ab2f943b7bd0c08d5a",
      "l1Fee": "0xe2a836906aa2",
      "l1FeeScalar": "0.01",
      "l1GasPrice": "0xcad4be5",
      "l1GasUsed": "0x6c70",
      "tokenRatio": "0x107d"
    },
    {
      "status": "0x1",
      "cumulativeGasUsed": "0xbaed406",
      "logs": [
        {
          "address": "0x47aac60014410ce6de3a315dfe2ee2a7698c897f",
          "topics": [
            "0x8c5be1e5ebec7d5bd14f71427d1e84f3dd0314c0f7b2291e5b200ac8c7c3b925",
            "0x00000000000000000000000014ffb23ad08f4ba3712ac6167dc69d6c54a09e6f",
            "0x0000000000000000000000000b68ee78502411810b9503ab2f943b7bd0c08d5a"
          ],
          "data": "0xffffffffffffffffffffffffffffffffffffffffffffffffffffffffffffffff",
          "blockHash": "0x2ef7394b43f773d0ebb8989ad4624ede7b2bce004aaa8c1d6844c712197462fe",
          "blockNumber": "0xe64c56",
          "transactionHash": "0x3f3d2211551decaa4a39c4d8edc1849d1c3270026cbbe29fa03fb578abd945e9",
          "transactionIndex": "0x1",
          "logIndex": "0x0",
          "removed": false
        }
      ],
      "logsBloom": "0x00000000000000000000000000000000000000000000000000000000000000000000000000400000000100000000000000000000000000010000000000220000000000000000000000000000000000000000000000000000000000000000000000010000040000000000000000000000000000000000008000000000000000000000000000000000000000000000000000000000000000000000000000000000020000000000000000000000000000000000000100000000000000000000000000000000000000000000000000000000400000000000000000000000000000000010000000000000000000000000000000000000000000000000000000000000",
      "type": "0x2",
      "transactionHash": "0x3f3d2211551decaa4a39c4d8edc1849d1c3270026cbbe29fa03fb578abd945e9",
      "transactionIndex": "0x1",
      "blockHash": "0x2ef7394b43f773d0ebb8989ad4624ede7b2bce004aaa8c1d6844c712197462fe",
      "blockNumber": "0xe64c56",
      "gasUsed": "0xbadfc25",
      "effectiveGasPrice": "0x14fb180",
      "from": "0x14ffb23ad08f4ba3712ac6167dc69d6c54a09e6f",
      "to": "0x47aac60014410ce6de3a315dfe2ee2a7698c897f",
      "contractAddress": null,
      "l1Fee": "0x16ae8e9fd8d7",
      "l1FeeScalar": "0.01",
      "l1GasPrice": "0xc070493",
      "l1GasUsed": "0xb70",
      "tokenRatio": "0x107d"
    },
    {
      "status": "0x1",
      "cumulativeGasUsed": "0xbae9fe8",
      "logs": [
        {
          "address": "0x85cb077de6640eb393dbc0f275f08b2bf2008cb3",
          "topics": [
            "0x8c5be1e5ebec7d5bd14f71427d1e84f3dd0314c0f7b2291e5b200ac8c7c3b925",
            "0x00000000000000000000000014ffb23ad08f4ba3712ac6167dc69d6c54a09e6f",
            "0x0000000000000000000000000b68ee78502411810b9503ab2f943b7bd0c08d5a"
          ],
          "data": "0xffffffffffffffffffffffffffffffffffffffffffffffffffffffffffffffff",
          "blockHash": "0xfa70630541076e9d9a62cf34095257738da36f0dee3b62c1478c518dd62309c7",
          "blockNumber": "0xe64c59",
          "transactionHash": "0x6288506df9f6cecdaab38d2600119b659ce0867cdce87b523a1f49ef0a8efe7f",
          "transactionIndex": "0x1",
          "logIndex": "0x0",
          "removed": false
        }
      ],
      "logsBloom": "0x00000000000000000000000000000000000000200000000000000000000000000000000000400000000100000000000000000000000000000000000000220000000000000000000000000000000000000000000000000000000000000000000000010000000000000000000000000000000000000000000000000000000000000000000000000000000000000000000000000000000000000000000000000000020000000000100000000000000000000000000100000000000000000000000020000000000000000000000000000000400000000000000000000000000000000010000000000000000000000000000000000000000000000000000000000000",
      "type": "0x2",
      "transactionHash": "0x6288506df9f6cecdaab38d2600119b659ce0867cdce87b523a1f49ef0a8efe7f",
      "transactionIndex": "0x1",
      "blockHash": "0xfa70630541076e9d9a62cf34095257738da36f0dee3b62c1478c518dd62309c7",
      "blockNumber": "0xe64c59",
      "gasUsed": "0xbade8cb",
      "effectiveGasPrice": "0x14fb180",
      "from": "0x14ffb23ad08f4ba3712ac6167dc69d6c54a09e6f",
      "to": "0x85cb077de6640eb393dbc0f275f08b2bf2008cb3",
      "contractAddress": null,
      "l1Fee": "0x1696c27fb76d",
      "l1FeeScalar": "0.01",
      "l1GasPrice": "0xc070493",
      "l1GasUsed": "0xb64",
      "tokenRatio": "0x107d"
    },
    {
      "status": "0x1",
      "cumulativeGasUsed": "0x10f75b85",
      "logs": [
        {
          "address": "0x7684650556491e2e6fa4c9b308217f2914fa70a9",
          "topics": [
            "0x8c5be1e5ebec7d5bd14f71427d1e84f3dd0314c0f7b2291e5b200ac8c7c3b925",
            "0x00000000000000000000000014ffb23ad08f4ba3712ac6167dc69d6c54a09e6f",
            "0x0000000000000000000000000b68ee78502411810b9503ab2f943b7bd0c08d5a"
          ],
          "data": "0xffffffffffffffffffffffffffffffffffffffffffffffffffffffffffffffff",
          "blockHash": "0x1fddb049b034d62dad6ba9e591130d99e0a147d9b9f47bffbe3d9510267e79dd",
          "blockNumber": "0xe64c5c",
          "transactionHash": "0x9a4301173436563a23845bb0fd3069a60ea45a771b1a42d5b6499c0aed820bc2",
          "transactionIndex": "0x2",
          "logIndex": "0x0",
          "removed": false
        }
      ],
      "logsBloom": "0x00000000000000000000000000000004000000000000000000000000000000000000000000400000000100000000000000000000000000000000000000220000000000000000000000000000000000000000000000000000000000000000000000010000000000000000000000000000000000000000000000000000000000000000000000000000000000000000000000000000000000000000000000000000020000000000000000000000000000002000000100000000000000000000000000000000000000000000000000000000400000000000000000000000000000000010000000000000100000000000000000000000000000000000000000000000",
      "type": "0x2",
      "transactionHash": "0x9a4301173436563a23845bb0fd3069a60ea45a771b1a42d5b6499c0aed820bc2",
      "transactionIndex": "0x2",
      "blockHash": "0x1fddb049b034d62dad6ba9e591130d99e0a147d9b9f47bffbe3d9510267e79dd",
      "blockNumber": "0xe64c5c",
      "gasUsed": "0xbada6d7",
      "effectiveGasPrice": "0x14fb180",
      "from": "0x14ffb23ad08f4ba3712ac6167dc69d6c54a09e6f",
      "to": "0x7684650556491e2e6fa4c9b308217f2914fa70a9",
      "contractAddress": null,
      "l1Fee": "0x1641a684881c",
      "l1FeeScalar": "0.01",
      "l1GasPrice": "0xbcd44b6",
      "l1GasUsed": "0xb70",
      "tokenRatio": "0x107d"
    },
    {
      "status": "0x1",
      "cumulativeGasUsed": "0xbae7868",
      "logs": [
        {
          "address": "0x8a76e8beb8b0380ebab2ded19bb087e9ada94378",
          "topics": [
            "0x8c5be1e5ebec7d5bd14f71427d1e84f3dd0314c0f7b2291e5b200ac8c7c3b925",
            "0x00000000000000000000000014ffb23ad08f4ba3712ac6167dc69d6c54a09e6f",
            "0x0000000000000000000000000b68ee78502411810b9503ab2f943b7bd0c08d5a"
          ],
          "data": "0xffffffffffffffffffffffffffffffffffffffffffffffffffffffffffffffff",
          "blockHash": "0xc9897087bd41551f47ff060c5e405c9577446f64487ce735d8ee6966f68c0d9c",
          "blockNumber": "0xe64c5f",
          "transactionHash": "0x76e0a7942997f9ab36eccc692959cdfe2a1c4807055501d758c2f30f61744ec3",
          "transactionIndex": "0x1",
          "logIndex": "0x0",
          "removed": false
        }
      ],
      "logsBloom": "0x00000000000000000000000000000000000000000000000000000000000000000000001000400000000100000000000000000000000000000000000000220000080000000000000000000000000000000000000000000000000000000000000000010000000000000000000000000000000000000000000000000000000000000000000000000000000000000000000000000000000000000000000000000000020000040000000000000000000000000000000100000000000000000000000000000000000000000000000000000000400000000000000000000000000000000010000000000000000000000000000000000000000000000000000000000000",
      "type": "0x2",
      "transactionHash": "0x76e0a7942997f9ab36eccc692959cdfe2a1c4807055501d758c2f30f61744ec3",
      "transactionIndex": "0x1",
      "blockHash": "0xc9897087bd41551f47ff060c5e405c9577446f64487ce735d8ee6966f68c0d9c",
      "blockNumber": "0xe64c5f",
      "gasUsed": "0xbadc14b",
      "effectiveGasPrice": "0x14fb180",
      "from": "0x14ffb23ad08f4ba3712ac6167dc69d6c54a09e6f",
      "to": "0x8a76e8beb8b0380ebab2ded19bb087e9ada94378",
      "contractAddress": null,
      "l1Fee": "0x165900616718",
      "l1FeeScalar": "0.01",
      "l1GasPrice": "0xbcd44b6",
      "l1GasUsed": "0xb7c",
      "tokenRatio": "0x107d"
    },
    {
      "status": "0x1",
      "cumulativeGasUsed": "0xbae25b5",
      "logs": [
        {
          "address": "0x8abda98a48b9cbdf39cd9566c3099ce05ad5a61e",
          "topics": [
            "0x8c5be1e5ebec7d5bd14f71427d1e84f3dd0314c0f7b2291e5b200ac8c7c3b925",
            "0x00000000000000000000000014ffb23ad08f4ba3712ac6167dc69d6c54a09e6f",
            "0x0000000000000000000000000b68ee78502411810b9503ab2f943b7bd0c08d5a"
          ],
          "data": "0xffffffffffffffffffffffffffffffffffffffffffffffffffffffffffffffff",
          "blockHash": "0x21cf595d331c58cfef57a0cfa253dea224ed1640fcc91874d099691f70db6a31",
          "blockNumber": "0xe64c62",
          "transactionHash": "0x1f8e9f11e00fe660e028216efccdbab32c14ea388e7d2879dd64a65ed05a411b",
          "transactionIndex": "0x1",
          "logIndex": "0x0",
          "removed": false
        }
      ],
      "logsBloom": "0x00000000000000000000000000000000000000000000000000000000000000000000000000400000000100000000000000000000000002000000000000220000000000000000000000000000000000000000000000000000000000000000000000010000000000000000000000000000000000000000000000000000000000000000000000000000000000040000000000000000000000000000000000000000020000000000000000000000000000000000000100000000000000000000000000000000000000000000000000000000400000000000000000008000000000000010000000000000000000000000000000000000000000000000000000000000",
      "type": "0x2",
      "transactionHash": "0x1f8e9f11e00fe660e028216efccdbab32c14ea388e7d2879dd64a65ed05a411b",
      "transactionIndex": "0x1",
      "blockHash": "0x21cf595d331c58cfef57a0cfa253dea224ed1640fcc91874d099691f70db6a31",
      "blockNumber": "0xe64c62",
      "gasUsed": "0xbad4de0",
      "effectiveGasPrice": "0x14fb180",
      "from": "0x14ffb23ad08f4ba3712ac6167dc69d6c54a09e6f",
      "to": "0x8abda98a48b9cbdf39cd9566c3099ce05ad5a61e",
      "contractAddress": null,
      "l1Fee": "0x15d09d37847f",
      "l1FeeScalar": "0.01",
      "l1GasPrice": "0xb915441",
      "l1GasUsed": "0xb70",
      "tokenRatio": "0x107d"
    },
    {
      "status": "0x1",
      "cumulativeGasUsed": "0x36b50ebd",
      "logs": [
        {
          "address": "0x47aac60014410ce6de3a315dfe2ee2a7698c897f",
          "topics": [
            "0xddf252ad1be2c89b69c2b068fc378daa952ba7f163c4a11628f55a4df523b3ef",
            "0x00000000000000000000000014ffb23ad08f4ba3712ac6167dc69d6c54a09e6f",
            "0x0000000000000000000000000b68ee78502411810b9503ab2f943b7bd0c08d5a"
          ],
          "data": "0x000000000000000000000000000000000000000000000000000000e8d4a51000",
          "blockHash": "0xb2461c7680eac096d8cd7849bbdd39f65ca7ad0dba1f4eca3fbecd9a4a539fe1",
          "blockNumber": "0xe64c64",
          "transactionHash": "0x062f02a7206953bf5437a0f65ac81d9931706c85ac69f7eacb460bf8497db699",
          "transactionIndex": "0x1",
          "logIndex": "0x0",
          "removed": false
        },
        {
          "address": "0x47aac60014410ce6de3a315dfe2ee2a7698c897f",
          "topics": [
            "0x8c5be1e5ebec7d5bd14f71427d1e84f3dd0314c0f7b2291e5b200ac8c7c3b925",
            "0x0000000000000000000000000b68ee78502411810b9503ab2f943b7bd0c08d5a",
            "0x000000000000000000000000610233b7c78ebb66b12019aac37449f50e37dbc8"
          ],
          "data": "0x000000000000000000000000000000000000000000000000000000e8d4a51000",
          "blockHash": "0xb2461c7680eac096d8cd7849bbdd39f65ca7ad0dba1f4eca3fbecd9a4a539fe1",
          "blockNumber": "0xe64c64",
          "transactionHash": "0x062f02a7206953bf5437a0f65ac81d9931706c85ac69f7eacb460bf8497db699",
          "transactionIndex": "0x1",
          "logIndex": "0x1",
          "removed": false
        },
        {
          "address": "0x8abda98a48b9cbdf39cd9566c3099ce05ad5a61e",
          "topics": [
            "0xddf252ad1be2c89b69c2b068fc378daa952ba7f163c4a11628f55a4df523b3ef",
            "0x00000000000000000000000014ffb23ad08f4ba3712ac6167dc69d6c54a09e6f",
            "0x0000000000000000000000000b68ee78502411810b9503ab2f943b7bd0c08d5a"
          ],
          "data": "0x000000000000000000000000000000000000000000001a784379d99db4200000",
          "blockHash": "0xb2461c7680eac096d8cd7849bbdd39f65ca7ad0dba1f4eca3fbecd9a4a539fe1",
          "blockNumber": "0xe64c64",
          "transactionHash": "0x062f02a7206953bf5437a0f65ac81d9931706c85ac69f7eacb460bf8497db699",
          "transactionIndex": "0x1",
          "logIndex": "0x2",
          "removed": false
        },
        {
          "address": "0x8abda98a48b9cbdf39cd9566c3099ce05ad5a61e",
          "topics": [
            "0x8c5be1e5ebec7d5bd14f71427d1e84f3dd0314c0f7b2291e5b200ac8c7c3b925",
            "0x0000000000000000000000000b68ee78502411810b9503ab2f943b7bd0c08d5a",
            "0x000000000000000000000000610233b7c78ebb66b12019aac37449f50e37dbc8"
          ],
          "data": "0x000000000000000000000000000000000000000000001a784379d99db4200000",
          "blockHash": "0xb2461c7680eac096d8cd7849bbdd39f65ca7ad0dba1f4eca3fbecd9a4a539fe1",
          "blockNumber": "0xe64c64",
          "transactionHash": "0x062f02a7206953bf5437a0f65ac81d9931706c85ac69f7eacb460bf8497db699",
          "transactionIndex": "0x1",
          "logIndex": "0x3",
          "removed": false
        },
        {
          "address": "0x47aac60014410ce6de3a315dfe2ee2a7698c897f",
          "topics": [
            "0xddf252ad1be2c89b69c2b068fc378daa952ba7f163c4a11628f55a4df523b3ef",
            "0x0000000000000000000000000b68ee78502411810b9503ab2f943b7bd0c08d5a",
            "0x000000000000000000000000610233b7c78ebb66b12019aac37449f50e37dbc8"
          ],
          "data": "0x000000000000000000000000000000000000000000000000000000e8d4a51000",
          "blockHash": "0xb2461c7680eac096d8cd7849bbdd39f65ca7ad0dba1f4eca3fbecd9a4a539fe1",
          "blockNumber": "0xe64c64",
          "transactionHash": "0x062f02a7206953bf5437a0f65ac81d9931706c85ac69f7eacb460bf8497db699",
          "transactionIndex": "0x1",
          "logIndex": "0x4",
          "removed": false
        },
        {
          "address": "0x8abda98a48b9cbdf39cd9566c3099ce05ad5a61e",
          "topics": [
            "0xddf252ad1be2c89b69c2b068fc378daa952ba7f163c4a11628f55a4df523b3ef",
            "0x0000000000000000000000000b68ee78502411810b9503ab2f943b7bd0c08d5a",
            "0x000000000000000000000000610233b7c78ebb66b12019aac37449f50e37dbc8"
          ],
          "data": "0x000000000000000000000000000000000000000000001a784379d99db4200000",
          "blockHash": "0xb2461c7680eac096d8cd7849bbdd39f65ca7ad0dba1f4eca3fbecd9a4a539fe1",
          "blockNumber": "0xe64c64",
          "transactionHash": "0x062f02a7206953bf5437a0f65ac81d9931706c85ac69f7eacb460bf8497db699",
          "transactionIndex": "0x1",
          "logIndex": "0x5",
          "removed": false
        },
        {
          "address": "0x610233b7c78ebb66b12019aac37449f50e37dbc8",
          "topics": [
            "0xadfbe721f8b3bb7ddf10897846890e8de59b483d7af2a0f22e3d23c25d49370f",
            "0x0000000000000000000000000b68ee78502411810b9503ab2f943b7bd0c08d5a"
          ],
          "data": "0x000000000000000000000000000000000000000000000000000000000000000000000000000000000000000000000000000000000000000004e812ef7f726fa2000000000000000000000000000000000000000000000000000000e8d4a51000000000000000000000000000000000000000000000001a784379d99db4200000",
          "blockHash": "0xb2461c7680eac096d8cd7849bbdd39f65ca7ad0dba1f4eca3fbecd9a4a539fe1",
          "blockNumber": "0xe64c64",
          "transactionHash": "0x062f02a7206953bf5437a0f65ac81d9931706c85ac69f7eacb460bf8497db699",
          "transactionIndex": "0x1",
          "logIndex": "0x6",
          "removed": false
        }
      ],
      "logsBloom": "0x00001000000000000008000000000000000000004000000000000000000000000000000800400000000100000000000000000000000002010000000000220000000000000000000000000008000000000000000000000000000000000000000000010000040100000000000000000000000000000000008000000018000000000000000000000000000000040000000000000000000000000000000000000000020000000000000000000000000000000000000100000000000000000000000000000002008000000000000000000000400008000000000000008000000000010010000000000000000000000000000000000000000000000000000000000000",
      "type": "0x2",
      "transactionHash": "0x062f02a7206953bf5437a0f65ac81d9931706c85ac69f7eacb460bf8497db699",
      "transactionIndex": "0x1",
      "blockHash": "0xb2461c7680eac096d8cd7849bbdd39f65ca7ad0dba1f4eca3fbecd9a4a539fe1",
      "blockNumber": "0xe64c64",
      "gasUsed": "0x36b457ac",
      "effectiveGasPrice": "0x14fb180",
      "from": "0x14ffb23ad08f4ba3712ac6167dc69d6c54a09e6f",
      "to": "0x0b68ee78502411810b9503ab2f943b7bd0c08d5a",
      "contractAddress": null,
      "l1Fee": "0x1511e1fd50c2",
      "l1FeeScalar": "0.01",
      "l1GasPrice": "0xb915441",
      "l1GasUsed": "0xb0c",
      "tokenRatio": "0x107d"
    },
    {
      "status": "0x1",
      "cumulativeGasUsed": "0x36b50ebd",
      "logs": [
        {
          "address": "0x85cb077de6640eb393dbc0f275f08b2bf2008cb3",
          "topics": [
            "0xddf252ad1be2c89b69c2b068fc378daa952ba7f163c4a11628f55a4df523b3ef",
            "0x00000000000000000000000014ffb23ad08f4ba3712ac6167dc69d6c54a09e6f",
            "0x0000000000000000000000000b68ee78502411810b9503ab2f943b7bd0c08d5a"
          ],
          "data": "0x000000000000000000000000000000000000000000000000000000e8d4a51000",
          "blockHash": "0x949d3263fbde265b6bedb6fe4321f883c9148971030f4cab815d04f95380d8f8",
          "blockNumber": "0xe64c66",
          "transactionHash": "0x3f7dbf968a49f9503a5f4e85a6332e8634d30772ca0846ed75b1bb95a8b9de54",
          "transactionIndex": "0x1",
          "logIndex": "0x0",
          "removed": false
        },
        {
          "address": "0x85cb077de6640eb393dbc0f275f08b2bf2008cb3",
          "topics": [
            "0x8c5be1e5ebec7d5bd14f71427d1e84f3dd0314c0f7b2291e5b200ac8c7c3b925",
            "0x0000000000000000000000000b68ee78502411810b9503ab2f943b7bd0c08d5a",
            "0x0000000000000000000000003aaa24ade1bc2b98bb58bd6111e02dd7bd8702e1"
          ],
          "data": "0x000000000000000000000000000000000000000000000000000000e8d4a51000",
          "blockHash": "0x949d3263fbde265b6bedb6fe4321f883c9148971030f4cab815d04f95380d8f8",
          "blockNumber": "0xe64c66",
          "transactionHash": "0x3f7dbf968a49f9503a5f4e85a6332e8634d30772ca0846ed75b1bb95a8b9de54",
          "transactionIndex": "0x1",
          "logIndex": "0x1",
          "removed": false
        },
        {
          "address": "0x8abda98a48b9cbdf39cd9566c3099ce05ad5a61e",
          "topics": [
            "0xddf252ad1be2c89b69c2b068fc378daa952ba7f163c4a11628f55a4df523b3ef",
            "0x00000000000000000000000014ffb23ad08f4ba3712ac6167dc69d6c54a09e6f",
            "0x0000000000000000000000000b68ee78502411810b9503ab2f943b7bd0c08d5a"
          ],
          "data": "0x0000000000000000000000000000000000000000000017293b0a9e69fd9c0000",
          "blockHash": "0x949d3263fbde265b6bedb6fe4321f883c9148971030f4cab815d04f95380d8f8",
          "blockNumber": "0xe64c66",
          "transactionHash": "0x3f7dbf968a49f9503a5f4e85a6332e8634d30772ca0846ed75b1bb95a8b9de54",
          "transactionIndex": "0x1",
          "logIndex": "0x2",
          "removed": false
        },
        {
          "address": "0x8abda98a48b9cbdf39cd9566c3099ce05ad5a61e",
          "topics": [
            "0x8c5be1e5ebec7d5bd14f71427d1e84f3dd0314c0f7b2291e5b200ac8c7c3b925",
            "0x0000000000000000000000000b68ee78502411810b9503ab2f943b7bd0c08d5a",
            "0x0000000000000000000000003aaa24ade1bc2b98bb58bd6111e02dd7bd8702e1"
          ],
          "data": "0x0000000000000000000000000000000000000000000017293b0a9e69fd9c0000",
          "blockHash": "0x949d3263fbde265b6bedb6fe4321f883c9148971030f4cab815d04f95380d8f8",
          "blockNumber": "0xe64c66",
          "transactionHash": "0x3f7dbf968a49f9503a5f4e85a6332e8634d30772ca0846ed75b1bb95a8b9de54",
          "transactionIndex": "0x1",
          "logIndex": "0x3",
          "removed": false
        },
        {
          "address": "0x85cb077de6640eb393dbc0f275f08b2bf2008cb3",
          "topics": [
            "0xddf252ad1be2c89b69c2b068fc378daa952ba7f163c4a11628f55a4df523b3ef",
            "0x0000000000000000000000000b68ee78502411810b9503ab2f943b7bd0c08d5a",
            "0x0000000000000000000000003aaa24ade1bc2b98bb58bd6111e02dd7bd8702e1"
          ],
          "data": "0x000000000000000000000000000000000000000000000000000000e8d4a51000",
          "blockHash": "0x949d3263fbde265b6bedb6fe4321f883c9148971030f4cab815d04f95380d8f8",
          "blockNumber": "0xe64c66",
          "transactionHash": "0x3f7dbf968a49f9503a5f4e85a6332e8634d30772ca0846ed75b1bb95a8b9de54",
          "transactionIndex": "0x1",
          "logIndex": "0x4",
          "removed": false
        },
        {
          "address": "0x8abda98a48b9cbdf39cd9566c3099ce05ad5a61e",
          "topics": [
            "0xddf252ad1be2c89b69c2b068fc378daa952ba7f163c4a11628f55a4df523b3ef",
            "0x0000000000000000000000000b68ee78502411810b9503ab2f943b7bd0c08d5a",
            "0x0000000000000000000000003aaa24ade1bc2b98bb58bd6111e02dd7bd8702e1"
          ],
          "data": "0x0000000000000000000000000000000000000000000017293b0a9e69fd9c0000",
          "blockHash": "0x949d3263fbde265b6bedb6fe4321f883c9148971030f4cab815d04f95380d8f8",
          "blockNumber": "0xe64c66",
          "transactionHash": "0x3f7dbf968a49f9503a5f4e85a6332e8634d30772ca0846ed75b1bb95a8b9de54",
          "transactionIndex": "0x1",
          "logIndex": "0x5",
          "removed": false
        },
        {
          "address": "0x3aaa24ade1bc2b98bb58bd6111e02dd7bd8702e1",
          "topics": [
            "0xadfbe721f8b3bb7ddf10897846890e8de59b483d7af2a0f22e3d23c25d49370f",
            "0x0000000000000000000000000b68ee78502411810b9503ab2f943b7bd0c08d5a"
          ],
          "data": "0x00000000000000000000000000000000000000000000000000000000000000000000000000000000000000000000000000000000000000000496f3199680ed1f000000000000000000000000000000000000000000000000000000e8d4a510000000000000000000000000000000000000000000000017293b0a9e69fd9c0000",
          "blockHash": "0x949d3263fbde265b6bedb6fe4321f883c9148971030f4cab815d04f95380d8f8",
          "blockNumber": "0xe64c66",
          "transactionHash": "0x3f7dbf968a49f9503a5f4e85a6332e8634d30772ca0846ed75b1bb95a8b9de54",
          "transactionIndex": "0x1",
          "logIndex": "0x6",
          "removed": false
        }
      ],
      "logsBloom": "0x00000000000000000008000000000000000000204100000000008000000000000000000000400010000100000000000000000000000002000000000000260000000000000000000000000008000000000000000000000000000000000000000000010000000100000000000000000000008000000000000000000010000000000000000000000000000000040000000000000000000000000000000000000000020000000000100000000000000010000000000100000000000000000000000020000002000000000000000000000000400000000000000000008000000000000010000000000000000000000000000000000000000000000000000000000000",
      "type": "0x2",
      "transactionHash": "0x3f7dbf968a49f9503a5f4e85a6332e8634d30772ca0846ed75b1bb95a8b9de54",
      "transactionIndex": "0x1",
      "blockHash": "0x949d3263fbde265b6bedb6fe4321f883c9148971030f4cab815d04f95380d8f8",
      "blockNumber": "0xe64c66",
      "gasUsed": "0x36b457ac",
      "effectiveGasPrice": "0x14fb180",
      "from": "0x14ffb23ad08f4ba3712ac6167dc69d6c54a09e6f",
      "to": "0x0b68ee78502411810b9503ab2f943b7bd0c08d5a",
      "contractAddress": null,
      "l1Fee": "0x1511e1fd50c2",
      "l1FeeScalar": "0.01",
      "l1GasPrice": "0xb915441",
      "l1GasUsed": "0xb0c",
      "tokenRatio": "0x107d"
    },
    {
      "status": "0x1",
      "cumulativeGasUsed": "0x36b7ccfb",
      "logs": [
        {
          "address": "0x7684650556491e2e6fa4c9b308217f2914fa70a9",
          "topics": [
            "0xddf252ad1be2c89b69c2b068fc378daa952ba7f163c4a11628f55a4df523b3ef",
            "0x00000000000000000000000014ffb23ad08f4ba3712ac6167dc69d6c54a09e6f",
            "0x0000000000000000000000000b68ee78502411810b9503ab2f943b7bd0c08d5a"
          ],
          "data": "0x000000000000000000000000000000000000000000000000000000e8d4a51000",
          "blockHash": "0x97ec81c64e79a920460da785a7663bab280572829aa5eb65d24b12a13a3e69c1",
          "blockNumber": "0xe64c69",
          "transactionHash": "0xa9dcde0f9069d9cde9aabd620df1c2018adc267eb274c43b1fe20d5b8b983a54",
          "transactionIndex": "0x1",
          "logIndex": "0x0",
          "removed": false
        },
        {
          "address": "0x7684650556491e2e6fa4c9b308217f2914fa70a9",
          "topics": [
            "0x8c5be1e5ebec7d5bd14f71427d1e84f3dd0314c0f7b2291e5b200ac8c7c3b925",
            "0x0000000000000000000000000b68ee78502411810b9503ab2f943b7bd0c08d5a",
            "0x000000000000000000000000943fe1262ddadcf725786fd7b845199c3eecc562"
          ],
          "data": "0x000000000000000000000000000000000000000000000000000000e8d4a51000",
          "blockHash": "0x97ec81c64e79a920460da785a7663bab280572829aa5eb65d24b12a13a3e69c1",
          "blockNumber": "0xe64c69",
          "transactionHash": "0xa9dcde0f9069d9cde9aabd620df1c2018adc267eb274c43b1fe20d5b8b983a54",
          "transactionIndex": "0x1",
          "logIndex": "0x1",
          "removed": false
        },
        {
          "address": "0x8abda98a48b9cbdf39cd9566c3099ce05ad5a61e",
          "topics": [
            "0xddf252ad1be2c89b69c2b068fc378daa952ba7f163c4a11628f55a4df523b3ef",
            "0x00000000000000000000000014ffb23ad08f4ba3712ac6167dc69d6c54a09e6f",
            "0x0000000000000000000000000b68ee78502411810b9503ab2f943b7bd0c08d5a"
          ],
          "data": "0x00000000000000000000000000000000000000000000144413a94a9cbde88000",
          "blockHash": "0x97ec81c64e79a920460da785a7663bab280572829aa5eb65d24b12a13a3e69c1",
          "blockNumber": "0xe64c69",
          "transactionHash": "0xa9dcde0f9069d9cde9aabd620df1c2018adc267eb274c43b1fe20d5b8b983a54",
          "transactionIndex": "0x1",
          "logIndex": "0x2",
          "removed": false
        },
        {
          "address": "0x8abda98a48b9cbdf39cd9566c3099ce05ad5a61e",
          "topics": [
            "0x8c5be1e5ebec7d5bd14f71427d1e84f3dd0314c0f7b2291e5b200ac8c7c3b925",
            "0x0000000000000000000000000b68ee78502411810b9503ab2f943b7bd0c08d5a",
            "0x000000000000000000000000943fe1262ddadcf725786fd7b845199c3eecc562"
          ],
          "data": "0x00000000000000000000000000000000000000000000144413a94a9cbde88000",
          "blockHash": "0x97ec81c64e79a920460da785a7663bab280572829aa5eb65d24b12a13a3e69c1",
          "blockNumber": "0xe64c69",
          "transactionHash": "0xa9dcde0f9069d9cde9aabd620df1c2018adc267eb274c43b1fe20d5b8b983a54",
          "transactionIndex": "0x1",
          "logIndex": "0x3",
          "removed": false
        },
        {
          "address": "0x7684650556491e2e6fa4c9b308217f2914fa70a9",
          "topics": [
            "0xddf252ad1be2c89b69c2b068fc378daa952ba7f163c4a11628f55a4df523b3ef",
            "0x0000000000000000000000000b68ee78502411810b9503ab2f943b7bd0c08d5a",
            "0x000000000000000000000000943fe1262ddadcf725786fd7b845199c3eecc562"
          ],
          "data": "0x000000000000000000000000000000000000000000000000000000e8d4a51000",
          "blockHash": "0x97ec81c64e79a920460da785a7663bab280572829aa5eb65d24b12a13a3e69c1",
          "blockNumber": "0xe64c69",
          "transactionHash": "0xa9dcde0f9069d9cde9aabd620df1c2018adc267eb274c43b1fe20d5b8b983a54",
          "transactionIndex": "0x1",
          "logIndex": "0x4",
          "removed": false
        },
        {
          "address": "0x8abda98a48b9cbdf39cd9566c3099ce05ad5a61e",
          "topics": [
            "0xddf252ad1be2c89b69c2b068fc378daa952ba7f163c4a11628f55a4df523b3ef",
            "0x0000000000000000000000000b68ee78502411810b9503ab2f943b7bd0c08d5a",
            "0x000000000000000000000000943fe1262ddadcf725786fd7b845199c3eecc562"
          ],
          "data": "0x00000000000000000000000000000000000000000000144413a94a9cbde88000",
          "blockHash": "0x97ec81c64e79a920460da785a7663bab280572829aa5eb65d24b12a13a3e69c1",
          "blockNumber": "0xe64c69",
          "transactionHash": "0xa9dcde0f9069d9cde9aabd620df1c2018adc267eb274c43b1fe20d5b8b983a54",
          "transactionIndex": "0x1",
          "logIndex": "0x5",
          "removed": false
        },
        {
          "address": "0x943fe1262ddadcf725786fd7b845199c3eecc562",
          "topics": [
            "0xadfbe721f8b3bb7ddf10897846890e8de59b483d7af2a0f22e3d23c25d49370f",
            "0x0000000000000000000000000b68ee78502411810b9503ab2f943b7bd0c08d5a"
          ],
          "data": "0x0000000000000000000000000000000000000000000000000000000000000000000000000000000000000000000000000000000000000000044b10918f8421ad000000000000000000000000000000000000000000000000000000e8d4a5100000000000000000000000000000000000000000000000144413a94a9cbde88000",
          "blockHash": "0x97ec81c64e79a920460da785a7663bab280572829aa5eb65d24b12a13a3e69c1",
          "blockNumber": "0xe64c69",
          "transactionHash": "0xa9dcde0f9069d9cde9aabd620df1c2018adc267eb274c43b1fe20d5b8b983a54",
          "transactionIndex": "0x1",
          "logIndex": "0x6",
          "removed": false
        }
      ],
      "logsBloom": "0x00000000000000000008000000010004000000004000000000000000000000000000000000400000000100000000000000000000000002000000000000220000000000000000000000000008000000000000000000000000000000000000000000010000000100000000100000000000000000000000000000000010000000000000000000000000000000040000000000000000000000000000000000000000020000000080000000000000000000002000000100000000000000000002000000000002000000000000000000000100400000000000000000008000000000000010000000000000100000000000000400000000000000000000000000000000",
      "type": "0x2",
      "transactionHash": "0xa9dcde0f9069d9cde9aabd620df1c2018adc267eb274c43b1fe20d5b8b983a54",
      "transactionIndex": "0x1",
      "blockHash": "0x97ec81c64e79a920460da785a7663bab280572829aa5eb65d24b12a13a3e69c1",
      "blockNumber": "0xe64c69",
      "gasUsed": "0x36b6d312",
      "effectiveGasPrice": "0x14fb180",
      "from": "0x14ffb23ad08f4ba3712ac6167dc69d6c54a09e6f",
      "to": "0x0b68ee78502411810b9503ab2f943b7bd0c08d5a",
      "contractAddress": null,
      "l1Fee": "0x174e6236b5fe",
      "l1FeeScalar": "0.01",
      "l1GasPrice": "0xcbdccf7",
      "l1GasUsed": "0xb18",
      "tokenRatio": "0x107d"
    },
    {
      "status": "0x1",
      "cumulativeGasUsed": "0x36b78bf5",
      "logs": [
        {
          "address": "0x8a76e8beb8b0380ebab2ded19bb087e9ada94378",
          "topics": [
            "0xddf252ad1be2c89b69c2b068fc378daa952ba7f163c4a11628f55a4df523b3ef",
            "0x00000000000000000000000014ffb23ad08f4ba3712ac6167dc69d6c54a09e6f",
            "0x0000000000000000000000000b68ee78502411810b9503ab2f943b7bd0c08d5a"
          ],
          "data": "0x000000000000000000000000000000000000000000000000000000e8d4a51000",
          "blockHash": "0x5e9897647b65be2184be2f0fe606e3621567a3c23ff156f65f023de63f51e9cf",
          "blockNumber": "0xe64c6c",
          "transactionHash": "0xf4277ca871f8e8961402b597fb5fa67f773a9eaf770ede4950631adf30522230",
          "transactionIndex": "0x1",
          "logIndex": "0x0",
          "removed": false
        },
        {
          "address": "0x8a76e8beb8b0380ebab2ded19bb087e9ada94378",
          "topics": [
            "0x8c5be1e5ebec7d5bd14f71427d1e84f3dd0314c0f7b2291e5b200ac8c7c3b925",
            "0x0000000000000000000000000b68ee78502411810b9503ab2f943b7bd0c08d5a",
            "0x0000000000000000000000002e7a018136dd4d997f05328840d8cf8f12ecf278"
          ],
          "data": "0x000000000000000000000000000000000000000000000000000000e8d4a51000",
          "blockHash": "0x5e9897647b65be2184be2f0fe606e3621567a3c23ff156f65f023de63f51e9cf",
          "blockNumber": "0xe64c6c",
          "transactionHash": "0xf4277ca871f8e8961402b597fb5fa67f773a9eaf770ede4950631adf30522230",
          "transactionIndex": "0x1",
          "logIndex": "0x1",
          "removed": false
        },
        {
          "address": "0x8abda98a48b9cbdf39cd9566c3099ce05ad5a61e",
          "topics": [
            "0xddf252ad1be2c89b69c2b068fc378daa952ba7f163c4a11628f55a4df523b3ef",
            "0x00000000000000000000000014ffb23ad08f4ba3712ac6167dc69d6c54a09e6f",
            "0x0000000000000000000000000b68ee78502411810b9503ab2f943b7bd0c08d5a"
          ],
          "data": "0x0000000000000000000000000000000000000000000011bb91342149262b7000",
          "blockHash": "0x5e9897647b65be2184be2f0fe606e3621567a3c23ff156f65f023de63f51e9cf",
          "blockNumber": "0xe64c6c",
          "transactionHash": "0xf4277ca871f8e8961402b597fb5fa67f773a9eaf770ede4950631adf30522230",
          "transactionIndex": "0x1",
          "logIndex": "0x2",
          "removed": false
        },
        {
          "address": "0x8abda98a48b9cbdf39cd9566c3099ce05ad5a61e",
          "topics": [
            "0x8c5be1e5ebec7d5bd14f71427d1e84f3dd0314c0f7b2291e5b200ac8c7c3b925",
            "0x0000000000000000000000000b68ee78502411810b9503ab2f943b7bd0c08d5a",
            "0x0000000000000000000000002e7a018136dd4d997f05328840d8cf8f12ecf278"
          ],
          "data": "0x0000000000000000000000000000000000000000000011bb91342149262b7000",
          "blockHash": "0x5e9897647b65be2184be2f0fe606e3621567a3c23ff156f65f023de63f51e9cf",
          "blockNumber": "0xe64c6c",
          "transactionHash": "0xf4277ca871f8e8961402b597fb5fa67f773a9eaf770ede4950631adf30522230",
          "transactionIndex": "0x1",
          "logIndex": "0x3",
          "removed": false
        },
        {
          "address": "0x8a76e8beb8b0380ebab2ded19bb087e9ada94378",
          "topics": [
            "0xddf252ad1be2c89b69c2b068fc378daa952ba7f163c4a11628f55a4df523b3ef",
            "0x0000000000000000000000000b68ee78502411810b9503ab2f943b7bd0c08d5a",
            "0x0000000000000000000000002e7a018136dd4d997f05328840d8cf8f12ecf278"
          ],
          "data": "0x000000000000000000000000000000000000000000000000000000e8d4a51000",
          "blockHash": "0x5e9897647b65be2184be2f0fe606e3621567a3c23ff156f65f023de63f51e9cf",
          "blockNumber": "0xe64c6c",
          "transactionHash": "0xf4277ca871f8e8961402b597fb5fa67f773a9eaf770ede4950631adf30522230",
          "transactionIndex": "0x1",
          "logIndex": "0x4",
          "removed": false
        },
        {
          "address": "0x8abda98a48b9cbdf39cd9566c3099ce05ad5a61e",
          "topics": [
            "0xddf252ad1be2c89b69c2b068fc378daa952ba7f163c4a11628f55a4df523b3ef",
            "0x0000000000000000000000000b68ee78502411810b9503ab2f943b7bd0c08d5a",
            "0x0000000000000000000000002e7a018136dd4d997f05328840d8cf8f12ecf278"
          ],
          "data": "0x0000000000000000000000000000000000000000000011bb91342149262b7000",
          "blockHash": "0x5e9897647b65be2184be2f0fe606e3621567a3c23ff156f65f023de63f51e9cf",
          "blockNumber": "0xe64c6c",
          "transactionHash": "0xf4277ca871f8e8961402b597fb5fa67f773a9eaf770ede4950631adf30522230",
          "transactionIndex": "0x1",
          "logIndex": "0x5",
          "removed": false
        },
        {
          "address": "0x2e7a018136dd4d997f05328840d8cf8f12ecf278",
          "topics": [
            "0xadfbe721f8b3bb7ddf10897846890e8de59b483d7af2a0f22e3d23c25d49370f",
            "0x0000000000000000000000000b68ee78502411810b9503ab2f943b7bd0c08d5a"
          ],
          "data": "0x0000000000000000000000000000000000000000000000000000000000000000000000000000000000000000000000000000000000000000040414b663b0cf7b000000000000000000000000000000000000000000000000000000e8d4a510000000000000000000000000000000000000000000000011bb91342149262b7000",
          "blockHash": "0x5e9897647b65be2184be2f0fe606e3621567a3c23ff156f65f023de63f51e9cf",
          "blockNumber": "0xe64c6c",
          "transactionHash": "0xf4277ca871f8e8961402b597fb5fa67f773a9eaf770ede4950631adf30522230",
          "transactionIndex": "0x1",
          "logIndex": "0x6",
          "removed": false
        }
      ],
      "logsBloom": "0x00000000000000000008000000000000800000004000000000000000000000000000001000400000000100000000000000000000000002000000000000220000080000000000000000000008000008000000000000000000000000400000000000010000000100000000000000000000000000000000000000000010000000000001000000000000000000060000000000000000000000000000000000000000020000040000000000000000000000000000000100000000000000000800000000000002000000000000000000000000400000000000000000008000000000000010000000000000000000000000000000000000000000000000000000000000",
      "type": "0x2",
      "transactionHash": "0xf4277ca871f8e8961402b597fb5fa67f773a9eaf770ede4950631adf30522230",
      "transactionIndex": "0x1",
      "blockHash": "0x5e9897647b65be2184be2f0fe606e3621567a3c23ff156f65f023de63f51e9cf",
      "blockNumber": "0xe64c6c",
      "gasUsed": "0x36b6d4d8",
      "effectiveGasPrice": "0x14fb180",
      "from": "0x14ffb23ad08f4ba3712ac6167dc69d6c54a09e6f",
      "to": "0x0b68ee78502411810b9503ab2f943b7bd0c08d5a",
      "contractAddress": null,
      "l1Fee": "0x174e6236b5fe",
      "l1FeeScalar": "0.01",
      "l1GasPrice": "0xcbdccf7",
      "l1GasUsed": "0xb18",
      "tokenRatio": "0x107d"
    }
  ],
  "libraries": [],
  "pending": [],
  "returns": {},
  "timestamp": 1731730361,
  "chain": 5003,
  "commit": "4a2ac27"
}